:020000022000DC
:1070000080A0002019C60200F7D8040005C60200BF
:1070100005C6020005C6020005C602000000000009
:1070200000000000000000000000000029C702006E
:1070300005C602000000000099C6020005C6020055
:1070400095C9020061E9030095C9020095C90200D3
:1070500095C9020095C9020095C9020095C90200B0
:1070600095C9020095C9020095C9020095C90200A0
:1070700095C9020095C9020095C9020095C9020090
:1070800095C9020095C9020095C9020095C9020080
:1070900095C9020095C9020095C9020095C9020070
:1070A00095C9020095C9020095C9020095C9020060
:1070B00095C9020095C9020095C9020095C9020050
:1070C00095C9020095C9020095C9020095C9020040
:1070D00095C9020095C9020095C9020095C9020030
:1070E00095C9020095C9020095C9020095C9020020
:1070F00095C9020095C9020095C9020095C9020010
:1071000053B94AB9002908BF00281CBF4FF0FF310E
:107110004FF0FF3000F00CB8ADF1080C6DE904CE73
:1071200024F04CF9DDF804E0DDE9022304B07047F7
:10713000704700BF10F8012B11F8013B012A28BF4E
:107140009A42F7D0D01A7047034611F8012B03F882
:10715000012B002AF9D17047034613F8012B002AAE
:10716000FBD1181A01387047F7B5002101AA40F683
:10717000034006F0F7FB0446002869D10198C36874
:107180001B788BB9B84BBFF35B8F1A68BFF35B8F6B
:1071900002F00902BFF35B8F53E8001F43E80024AD
:1071A000002CF9D1BFF35B8F05F078FE01AA002116
:1071B00041F2030006F0D6FB0446002848D1019AAC
:1071C000AA4DD168D1F80100D1F8051005F1780376
:1071D00003C3104605F062FE214601AA41F20100F8
:1071E00006F0C0FB044698BB0198C3685A7885F83E
:1071F00070205A88A5F872201A7985F87120B3F8A2
:107200000720A5F87420B3F80530A5F8763005F00E
:1072100045FE214601AA41F2020006F0A3FB044606
:10722000B0B9019FFA6805F18006531C4132186815
:107230005968344603C4083393422646F7D138468A
:1072400005F02CFE95F87C30580604D46FF012043B
:10725000204603B0F0BD01AA002142F2030006F06F
:1072600081FB04460028F3D1019B814EDA68D2F8F5
:107270000100D2F8051003C6184605F00FFE21469E
:1072800001AA42F2020006F06DFB04460028DFD19D
:10729000019CE368B3F8012091B249B1D97839B1C2
:1072A000A5F80421DA78114606F128002CF084F9BB
:1072B000204605F0F3FD95F87C401F2314F02004D0
:1072C000A5F8203118D1022140F66D4006F0D0F922
:1072D0000646002800F0C48002210C3026F0E1FBB5
:1072E0000123447003702246314640F66D4006F09B
:1072F00039FB04460028ABD195F89C30190712D50C
:1073000001AA002142F21C0006F02CFB04460028D2
:107310009ED10198C368D3F80120D3F80530C5E9A0
:10732000382305F0BBFD95F8D8309A0624D50DF129
:107330000201684626F0E8FF0446002888D10421AF
:1073400042F2240006F094F90646002800F08880F6
:1073500004210C3026F0A5FBBDF800300380BDF8F9
:10736000023043802246314642F2240006F0FAFA07
:10737000044600287FF46CAF95F8D8305B0610D532
:1073800001AA002142F22A0006F0ECFA0446002885
:107390007FF45EAF0198C3685B7885F8223105F011
:1073A0007DFD082142F2010006F062F90446002842
:1073B00056D008210C3026F074FB95F8D81011F047
:1073C000400F40F2022308BF03238F074CBF43F056
:1073D0002C0343F00C038E0695F8D96006F00906DD
:1073E000024648BF43F040030EB143F4006301F08E
:1073F000010143EA0110002126F0BCFD21460022D4
:1074000042F2010006F0AEFA044600287FF420AFF5
:1074100095F87C30B5F8041198062DD4C9B901AAA5
:1074200041F2050006F09EFA044600287FF410AFF2
:10743000B5F80431019C4BB9E368B3F80120A5F815
:1074400004219A880B4811462CF0B6F8204605F026
:1074500025FD082140F6014006F00AF9044680B9EE
:107460006FF06804F4E600BF4C0D0020780C00209B
:10747000500D0020800D00200029EAD16FF0040497
:10748000E6E608210C3026F00CFB95F8D830D90739
:10749000024653BF4FF000512BA1D1E9000128480B
:1074A00026F068FD2146002240F6014006F05AFA17
:1074B000044600287FF4CCAE014601AA4FF60140F5
:1074C00006F050FA044620BB019805F0E7FC21467F
:1074D00001AA4FF6024006F045FA0446C8B90198E1
:1074E000C368B3F80130A5F8C13005F0D7FC95F8B2
:1074F000C1305B070DD501AA21464FF6034006F0C7
:1075000031FA30B90198C3685B7885F8C03005F06E
:10751000C5FC27F0D0F8044600287FF499AE08F0A7
:1075200043FA044600287FF493AEEB79002B3FF436
:107530008FAE0821034826F058FC06F063F987E671
:10754000108800024C0D002090880002008000206E
:107550002DE9F8438846D0E9071685698C192F3440
:10756000A54291461AD81E4E1BA3D3E90023A1FBC6
:107570000601FFF7C5FD0346601BA0FB060123F0D3
:107580007F4415A3D3E90023FFF7BAFD20F07F4025
:10759000C8F80040C9F80000BDE8F883104F0EA3FA
:1075A000D3E90023A5FB0701FFF7AAFD20F07F44E4
:1075B0000C480A2108A3D3E90023E6FB0701FFF7E3
:1075C0009FFD20F07F40C8F80040C9F80000BDE8EA
:1075D000F88300BFAFF300808D49FD1A070000005B
:1075E00000CA9A3B00166BF1F0B5036989B00546F5
:1075F0000F461E4622482BF08BFF4FF0FF32002132
:1076000020482BF0D9FF1F480DF0E8FA044670BB64
:10761000376000F049F89FED187B6FF00903CDE962
:1076200003348DED067BCDE90144174B17490095D6
:107630004FF40072164821F0C9FF164914482CF087
:10764000DBF89FED0D7B6FF00702CDE903248DED94
:10765000067BCDE90144104B104900954FF4607250
:107660000F4821F0B3FF0F490D482CF0C5F8204614
:1076700009B0F0BDAFF30080000000000000000082
:10768000803E0020983E0020955A0300808600200E
:1076900008250020185A0500755903008082002033
:1076A00040240020245A05009FED097B0E4B0F4A11
:1076B0000F4983ED007B9FED087B82ED007B9FED02
:1076C000087B0C4B002281ED007B1A600EF08ABA19
:1076D000FFFFFFFFFF1F0000000000000000000090
:1076E0001F00000000000000080E0020D025002030
:1076F000000E0020B03E0020002800F067812DE938
:10770000F047B94C94F86A2012F001058EB040F0B1
:10771000498194F82500FF2300F0030084F8263007
:1077200016F0BEFC94F86A00420700F13F8194F81D
:10773000292094F8353004EB820204EB8303D56AE8
:107740009B6B984685B1A848294610F0ADF82B7878
:107750005B0605D506210BF06BFA002800F07C8152
:10776000A148414610F0A0F82B7813F00E0F40F01E
:107770009980236A1BB10C200EB0BDE8F0870DF094
:107780005DFD0646002800F070810DF063FD814626
:10779000002800F0678110F09BFB0346002800F0F2
:1077A0006B81D0F894004FF6FF721A8603F11C0A21
:1077B000002800F05C8103F1880203F184010B933F
:1077C0000BF042FA0B9BB3F8821021F4EF6121F029
:1077D000070141F48C7141F00101A3F8821093F884
:1077E000431001F03F0161F07F0183F8431093F8EB
:1077F0009A1021F0070183F89A1093F8481021F0AD
:107800000F01002283F848104FF000074FF4C02109
:10781000C3E91522C3F89420A3F89820DA86C3F8A8
:107820003A20DA65A3F89E21A3F89421C3F89811B1
:10783000184683F8457012F0F1FC0B9B83F86071D9
:10784000C3F8646110F01EFE0B9B93F8A41160F363
:10785000020183F8A41110F01BFE0B9B93F8A4C146
:1078600060F3C50C93F8900183F8A4C120F00200E6
:1078700083F890010121184611F004FA0B9B03F1E3
:10788000E00012F097FA0B9BC4F820A00022C4E994
:107890001869C3E905221F70DB6117F0ADFE0028EF
:1078A00040F0DC8094F824300121C3F342030DF151
:1078B00033008DF833300BF06FFB002800F0888028
:1078C00098F80110024628460FF09EFD3123A36070
:1078D0004FF0000323700023C4E90533434A63607B
:1078E000E360434BB4F868600721E0FB02311846BF
:1078F0003BA3D3E90023FFF703FC20610CF000FE5B
:1079000000F10907002E40F0A5802A7802F00F024E
:10791000A2F10102B2FA82F2520994F8240023691A
:1079200062F3000010F0010584F824006AD0314AA7
:10793000099200201060304A0493022501930592B9
:107940003B460DAAB8462D4F089216460321CDE9B5
:1079500002000694009007972A460D950CF0CEFC85
:1079600031460DF027FD98BB254905914AF2D833E1
:107970000093CDE90300CDE901000797089606942E
:107980004346012203210D950CF09AFC31460DF07F
:1079900011FDE8B994F86A300120034384F86A3095
:1079A00016F060FB00200EB0BDE8F0872A4604F117
:1079B0006B01C0F3C00016F0E3FCFF2884F826003A
:1079C0003FF4B5AE284616F085FBB0E60FF064BC78
:1079D000236A002B3FF4CFAE0FF01AFCCBE600BFBA
:1079E0008D49FD1A07000000D83E002000CA9A3BCE
:1079F0008C49FD1ACC3E00207974030065460300D3
:107A0000AD6F0300224A2348049303F24713069400
:107A1000029591211360A6FB000301FB06311E4B6A
:107A200007931E4B059302230D930DAB08931E463F
:107A30004FF6FF730992039313A3D3E90023FFF7D3
:107A40005FFB3B46CDE900500222284603210CF0A3
:107A500055FC9BE7002260E712208DE60FF0D8FB73
:107A6000032089E630460DF0EFFB072084E603F1A2
:107A70008C00C3F894009EE648460DF0F1FB3046BA
:107A80000DF0E2FBF1E700BF8D49FD1A0700000091
:107A9000CC3E0020002AE784654603007974030089
:107AA00070B590F824308AB0C3F342030D46044603
:107AB00001210DF1230016468DF823300BF06CFAEE
:107AC0007178024628460FF09FFC1F4A1F4B072182
:107AD000E0FB023118461AA3D3E90023FFF710FB9D
:107AE00023699842054621D21B1A00220192184AA6
:107AF0000293184BA21A0221A3FB023201EB92124D
:107B0000002309AE099114490591CDE903330321FE
:107B10000696D2B2009318460CF050FC31460DF098
:107B200049FC38B9256100200AB070BDFBD9C21AE2
:107B30000023DBE70C200AB070BD00BFAFF300806C
:107B40008D49FD1A0700000000CA9A3B8C49FD1AB6
:107B5000D83E002009CB3D8D6546030000000000A3
:107B60002DE9F04F81468BB08A46012002219846CC
:107B7000144619F00BFD00220221834601200BF070
:107B8000B3F83D494FF4D87248460BF03BF8C51C9A
:107B90003A4B0093EDB2CDF8049043462A460121BA
:107BA00000200CF069FC10F0FD0F0ED0344A35496E
:107BB000354840F68F0324F01BFC002383F3118823
:107BC000BFF36F8F0323184602DF304FA4FB074734
:107BD00027A3D3E9002320463946FFF791FACDF8D1
:107BE0002090CDF81890D9F810300493284B20F04D
:107BF0007F46A6FB0331E01A264B07934FF007029E
:107C0000254B059302FB06114FF6FE7367EB01014E
:107C100003934FF47A720023FFF772FACDF800A0B5
:107C2000CDE9016043462A46012100200CF048FBC3
:107C300010F0FD0F0ED0124A1249134840F6A4036B
:107C400024F0D6FB002383F31188BFF36F8F032347
:107C5000184602DFBBF1000F02D10BB0BDE8F08F78
:107C60000122022110460BB0BDE8F04F0BF03CB8EA
:107C70008D49FD1A07000000E8250020FD7D030066
:107C8000BC5C0500805D05009857050000CA9A3B62
:107C90008D49FD1A9D7D03002DD5030000000000D5
:107CA000F0B58468228E4FF6FF739A428FB000F0D1
:107CB00082800546204612F069FD2B7D012B00F0E5
:107CC000FA80022B79D033B994F89A3003F0180374
:107CD000182B00F0348194F86061002E70D1638F0E
:107CE00094F943201F462B8ACDE90C66002B6ED0F9
:107CF000B242C0F23E810023A4F89A31AA7C238FBD
:107D000002F003023B440133012A9DB200F02D81B1
:107D1000B4F89E21002A00F0D480AA4240F250819B
:107D2000521B92B20021062AA4F89E21618740F2DC
:107D3000E28094F943208A42C0F24C81002294F8F8
:107D4000481062F3820184F848100DF12F02294691
:107D5000204612F09FFA743028D0B4F898212AB146
:107D6000AA4240F2D580521BA4F89821B4F894217D
:107D70002AB1AA4240F2DC80521BA4F89421658FFC
:107D800016B9AF4200F0C2800135ADB294F8DD30D3
:107D900013F0010038D1DDE90CC3002B63D1BCF135
:107DA000000F00F00581184619465DE09DF82F1080
:107DB000204610F04BFC0FB0F0BD3D2684F860610A
:107DC000314620460FB0BDE8F04010F03FBC9A426B
:107DD000B8BF84F88561AA7C238F02F003023B447C
:107DE0000133012A9DB200F0C080B4F89A21002A24
:107DF0008ED0AA4240F2E980521BA4F89A21B4F82E
:107E00009E21002A89D19AE794F9432023F00103A7
:107E1000002A84F8DD3071DB94F88200C0F3C001E1
:107E200000F0070017F000FAB4F87A20B4F87830C0
:107E30001344628D03F23F1313441844884A894B5C
:107E40000721E0FB0231184683A3D3E90023FFF7A3
:107E500057F9216920F07F429142DDE90CC380F09F
:107E6000A080501A22610021228EE4690694CDE997
:107E7000035603327C4D0291CDE900C0D2B20121FC
:107E8000002005950CF09AFA10F0FD0F93D00DF03C
:107E9000BFFAA0428FD0754A754976484FF4AE6359
:107EA00024F0A6FA002383F31188BFF36F8F032316
:107EB000184602DF7FE70023A4F89831A4F8943134
:107EC00009E7628E052A8BBF40F2E2414FF4FA7156
:107ED000514302FB0111B4F89C2142F2107000FBE7
:107EE0000212013AB2FBF1F292B2A4F89E21002AEA
:107EF0007FF413AF23E70126324620E794F883008E
:107F0000012100F0070017F091F98DE735463DE7B4
:107F10000DF0E6F90146002868D00022A4F8982167
:107F2000228EC2801B22027100680DF0ABF91DE7A2
:107F30000023A4F89431204612F054FA1FE7A18ED2
:107F4000B4F896218B1D9A42C4BF931F5B1AB4F8F4
:107F50009211CCBF9BB2134699424ED0A4F89231F5
:107F6000A4F89431A4F89821B5E60022A4F89E2143
:107F7000E5E694F88531002B45D0013B84F8853146
:107F800004F1E0031846099311F056FF099B0028FD
:107F900056D0184611F050FF002843D000236387C5
:107FA000A9E6891A2261002B3AD151EA0C021BD1B1
:107FB00015B9002E3FF4FFAE00200146034653E7FB
:107FC0000821204610F042FBF5E63E21204610F045
:107FD0003DFBF0E677B9D4F88821510812F0010290
:107FE00033D1C4F88811A9E618463DE70122A4F868
:107FF0009821BBE60A460126A1E6B4F898110029AB
:108000007FF469AEACE70CAA0DA92846FFF7A0FAE9
:10801000DDE90C231343B3D0237884F88531AFE72F
:10802000002021E70246D4E921010AF021FE0028C0
:10803000B4D194F848301B0744BFA38E63875AE637
:10804000FF2010F0C5FA099BA3E741F00041164656
:10805000C4F888113A4672E68D49FD1A07000000FF
:1080600000CA9A3B8C49FD1A597D0300BC5C05008F
:10807000FC5D0500985705002DE9F04F87B0CDE96C
:1080800003120593BDF8442003780192BDF84820FF
:10809000BDF84090BDF84C70B0F83C8002920446A8
:1080A000002B00F0D08008F1FF38A368D4F81CA1A1
:1080B000A8EB070292B2002B00920ADAE16862682C
:1080C00023F0004391422CBF8A449244A360AAEB60
:1080D000030A94F88200C0F3C00100F0070017F013
:1080E000A3F8658E052D40F2A680009B15FB03F5D5
:1080F000ADB240F2E24BB9F1050F40F29080B4F816
:108100007A20B4F87830134403F2D5131844784A2F
:10811000784B0721E0FB023118464FF09613A3621B
:108120009623A38570A3D3E90023FEF7E9FF4E460B
:1081300020F07F4040F2E2430BFB05F103FB06F623
:10814000B1FBF6F51FFA85FB20610BFB06F08142BF
:1081500057D2401A664964A3D3E90023A0FB01016A
:10816000FEF7CEFF20F07F408244E38EB4F8242156
:1081700013441F4494F84330A7EB08073D44DB0940
:10818000E58666D15C4A5D495D4840F6671324F098
:108190002FF9002787F31188BFF36F8F0323184649
:1081A00002DF3546019BA386029BA4F89C31314631
:1081B0002046A4F8329012F0A9F8A28E514B901DDF
:1081C000F318B3FBF6F39A1A99B2063AA4F896316B
:1081D000884238BF1346A4F89231039B13B10023A1
:1081E000A4F89E3153462A4639462046FFF7B8FC8C
:1081F00094F8903143F0010384F8903107B0BDE862
:10820000F08F091A3A4838A3D3E90023A1FB0001F3
:10821000FEF776FF20F07F40AAEB000AA5E74FF0BB
:10822000961309F10106A3629623A385B6B20A202C
:108230004FF4FA7380E7009B013515FB03F5ADB2EF
:108240004FF4FA7B57E7C38E9844B0F82431984432
:108250002BE7E26C0099636D254F02FB11336365D8
:1082600017F018FA054694F88401C0F3420017F09D
:1082700013FA054406FB05F5234B05F5742505F2B5
:108280003F25A3FB0535AD0C636DE5640BFB05F0E5
:1082900072080344963A934228BF1346C4E9142354
:1082A000049B40F2E24808FB03F3E3650023C4F8B3
:1082B0008C31A0FB07010CA3D3E90023FEF720FFBC
:1082C000124B059AAAEB000AA3FB0230800A08FBB6
:1082D00000F0A0FB070104A3D3E90023FEF710FF81
:1082E000751B20F07F475DE78D49FD1A07000000F0
:1082F00000CA9A3B8C49FD1ABC5C05007058050009
:10830000985705007FC3C90183DE1B435917B7D1B6
:108310002DE9F04F0B6891F81180D3F80090037F9E
:10832000166895B00446C3F38013D0F81E008DF88C
:108330003F30B8F1FF0F638C12900F461546ADF831
:108340004C304DD1DDE912011090ADF84410A24639
:10835000E28D94F830305AF81C1B2A81AB72D4F8A5
:108360002A306B60D4F83A30C5F8223005F122008B
:1083700094F83E300B91037105210AF00DFE95F83B
:10838000273000F03F0060F3050385F8273094F8AC
:108390003F30C3F3040385F82830A28EEA82012817
:1083A00092B205D91B3303F01F030B2B00D81ABB65
:1083B0000022C9F8142095F82C300B9862F30003C2
:1083C00085F82C30012621462671E4680CF04EFF1A
:1083D0002068267121460CF055FF15B0BDE8F08FDE
:1083E00010AA0DF13F01404615F0D2FB9DF83F3039
:1083F00002338DF83F30AAE73B6800215960E38ED5
:10840000EA8A2B8340F2E24303FB02F20C92638E72
:108410000D93304611F090FF94F83F2096F88411A8
:10842000520962F3430186F8841117F033F9834649
:1084300096F88401C0F3420017F02EF90C9BC04956
:108440000BEB000203FB02F202F5742202F23F2260
:10845000A1FB0212920C2A635A08963A6A6394F8B6
:108460003120194640F2E24302FB03F36B64238F91
:10847000A6F89C3130468B4611F048FFB14BB24A0A
:10848000C6F8A0215B44B3FBFBF3A6F896312A8B18
:1084900098B2991A06329042A1F10602C8BF13465B
:1084A000A6F892316B68C6F88831237F1AF0010F65
:1084B000C3F3401B40F002814FF48073A38399F80B
:1084C000260016F0B1F8002800F0F380636AC4F8C3
:1084D0002B30238DA4F82F30B8F1FF0F00F011815D
:1084E000BDF84C301298A4F82930C4F825009DF846
:1084F0003F30A3771098BDF84430C4F81F00A4F8AB
:108500002330EB8A63862B8BA386B6F89C31E386F7
:1085100096F88431C3F3420384F8383030460FF0C4
:10852000E3FCA882E08021460B987C680CF09EFE5C
:10853000AA8AD4F80080E2801C232371BBF1000FCB
:1085400040F0D3805B462377214640460CF09AFEEC
:1085500095F86700B5F85C80B5F85E40012100F041
:10856000070016F063FE04EB080303F2D513DFF8EF
:10857000E4810B90034475480721E3FB08014FF0A9
:108580009613C5E9033300243123B36074606AA3F2
:10859000D3E90023F460FEF7B3FD20F07F403061A3
:1085A0000C9B2D6B0D995D1BFB6840F2E24202FBB8
:1085B000013A0B9A0AF2B34A0221AAEB020A0120FD
:1085C00022460AF091FB48460FF02CF95AA3D3E952
:1085D00000238346AAFB0801FEF792FDCDF8049024
:1085E000BB685B49009120F07F480BF102023A3BE7
:1085F000D2B24344012120460BF03EFF012800F097
:10860000868099F82430DB0767D430460FF06CFC85
:10861000504CA5FB044948A3D3E9002382464946B0
:108620002046FEF76DFDBB684B4A07920AF103072F
:10863000A3F13A0A494B069620F07F45A5FB03318A
:10864000E01A474B05934FF4F5730893336904938D
:108650004FF0070303FB051169EB010100244FF400
:108660007A7200230394FEF74BFDFFB2CDE901506F
:10867000CDF8008053463A46012120460BF020FEFB
:1086800010F0FD0F0DD0374A3749384840F2EB1350
:1086900023F0AEFE84F31188BFF36F8F03231846D7
:1086A00002DF0122022110460AF01EFB15B0BDE8D0
:1086B000F08FC4F82B00A4F82F000DE7294A2C49AD
:1086C0002A48FD2323F094FE002383F31188BFF38F
:1086D0006F8F0323184602DFEEE60023012200938A
:1086E000184611460BF086FE8FE795F8273043F0C9
:1086F000400385F82730281D15F036F8012328851A
:1087000021E70023C4F82530A4F82930EFE60CF067
:108710007FFE81453FF475AF124A1649134840F277
:10872000922323F065FE84F31188BFF36F8F032338
:10873000184602DF65E700BF8D49FD1A07000000FB
:1087400083DE1B437FC3C901404B4C008C49FD1A9B
:10875000E9D4030000CA9A3BB5D403008D49FD1A41
:108760002DD5030028620500805D0500985705009F
:10877000905A05008462050010B5334C334900233C
:1087800004F1FF3C14F83320072A02EB820E05D8CF
:1087900011F83E2022F0200201F83E201CF8332080
:1087A00022F001020CF833200133082BEAD1284AC9
:1087B000284C002313700A7863F300020A7091F8C2
:1087C000282063F3000281F8282091F8502063F3F9
:1087D000000281F8502091F8782063F3000281F8BC
:1087E000782091F8A02063F3000281F8A02091F88E
:1087F000C82063F3000281F8C82091F8F02063F3E9
:10880000000281F8F02091F8182163F3000281F84A
:108810001821114A9FED0A7B1370104B83ED007BEA
:108820000F4B236028B1BDE810400E490E482AF0D6
:1088300088BFBDE810400C482AF08EBFAFF300801F
:10884000FFFFFFFFFFFFFFFF69440020E02700203C
:10885000055E002078430020045E0020D827002019
:10886000A0BB0D00B9E20300A82700200000000013
:108870002DE9F0478EB00DF13701354F354E824668
:108880000DF136000CF06EFD9DF836309DF8372066
:108890000A930B920BF034FE3D68A5FB06452AA314
:1088A000D3E90023814629462046FEF729FCCDF86E
:1088B00018A020F07F487868274B0593A0FB06019D
:1088C00021A3D3E900230026CDE90766FEF718FCB3
:1088D000224B20F07F40A8FB03310722CDE9036043
:1088E00002FB0811E01A65EB01014FF47A720023D4
:1088F000FEF706FC0096CDE901804B46DDE90A0251
:1089000003210BF0DDFC10F0FD0404D06FF08B00B0
:108910000EB0BDE8F0871248124A002320F06CFB2D
:1089200018B9F8680EB0BDE8F0879DF837209DF8BB
:1089300036000094234603210BF05CFD6FF07300BA
:10894000E6E700BFAFF300808D49FD1A0700000085
:10895000F444002000CA9A3BE5E803008D49FD1A63
:10896000DC440020447B0B0038B50F4D04460BF06F
:10897000C7FDA9680BF0C6FD696803460B48B3FB49
:10898000F4F4A1FB00011C4405A3D3E90023FEF786
:10899000B7FB20F07F40844294BF0020012038BD07
:1089A0008D49FD1A07000000F444002000CA9A3BDC
:1089B000F0B5C468636883B00646002B63D118F035
:1089C00059F9002018F07EF90021084618F06CF9DA
:1089D00000222521082018F0A9F9474B019301A88E
:1089E00018F090F9454940F25B6018F03DFA237A9F
:1089F000C3F3420262F306132372204617F078F89D
:108A000015F0F0FE637A03F0030348BBFBB9276857
:108A10003568384616F0A2FB054405F10901726875
:108A2000012018F06FFB18F031FC20460EF006FF15
:108A3000811C2A46C9B2384616F09EFB054668BB23
:108A4000204616F031FB78B9002003B0F0BD0120BC
:108A500015F0FEFA4178821C007818F0F3FAD6E798
:108A6000181E18BF0120F3E7254A2649264840F280
:108A7000294323F0BDFC85F31188BFF36F8F0323D7
:108A8000184602DFE0E793F82C309B0797D01F4889
:108A9000214618F0ABF818F095F9D5E7184A1C49AB
:108AA000194840F2114323F0A3FC1A4B0721A5FB00
:108AB000030301FB05310EA3D3E90023FEF720FBDE
:108AC00015490246154823F093FC002585F31188CB
:108AD000BFF36F8F0323184602DF1148214618F0B9
:108AE00085F818F06FF96FF08B00AEE7AFF30080F8
:108AF00000CA9A3B00000000D6BE898E555555002D
:108B000070660500705905009857050011F30300C1
:108B1000705805008D49FD1A2C6A0500F4660500A1
:108B2000A5F6030000000000F0B5C468A28A4FF665
:108B3000FF739A4283B000F0D780074617F02AFBF4
:108B40003B89628B208C94F82710A3831A4492B23D
:108B5000104480B2431C23840023638301F03F034D
:108B60004906E28300F19B8094F82810009304F1F9
:108B7000290004F1220314F0B1FD0546D4E90C31BB
:108B8000A28B02FB0333A26B1344E26B8B4294BFB4
:108B9000D21852188A4228BF0A46636CE263226CDC
:108BA00094F86710134494F82C20636461F3061260
:108BB00084F82C2094F87E20002312F00402A36392
:108BC000236475D018F056F8002018F07BF8201DAB
:108BD00018F098F82389A17A40F25B6043EA0141DA
:108BE00018F042F9284616F0DBFA2146584817F0EB
:108BF000FDFFA08918F07AFA94F8662094F86700CF
:108C0000C2F3C003002102F0070200F0070018F0D1
:108C100093F9204617F068FB26683D68304616F049
:108C20009DFA05447A6805F10901002018F06AFAF6
:108C3000074618F0FFFA002018F016FBE36B94F8D3
:108C4000670003F12F02636C00F0070003EB42039F
:108C500001211F4418F0A8F83B1894F8670000F0B1
:108C60000700022822D004280CBF4FF4BC7228222F
:108C700001219F1818F09AF8384418F0CDFAA18A0B
:108C800003312A46C9B2304616F076FA054690BB43
:108C9000204616F009FAC0B9002003B0F0BD218DBE
:108CA00004F1220214F064FD054667E71822DFE7AD
:108CB000D4E91A0109F0DCFF002883D194F87E3052
:108CC00043F0040384F87E307CE7224A224923489B
:108CD0004FF4B07323F08CFB85F31188BFF36F8FD3
:108CE0000323184602DFD7E71D48214617F07EFF11
:108CF00018F068F8D0E7174A1A4918484FF4AB73D0
:108D000023F076FB184B0721A5FB030301FB05317C
:108D10000DA3D3E90023FEF7F3F9144902461448E2
:108D200023F066FB002585F31188BFF36F8F0323C3
:108D3000184602DF0F48214617F058FF18F042F896
:108D40006FF08B00A9E700BF00CA9A3B000000004B
:108D500071050400A06705007059050098570500CB
:108D600011F30300705805008D49FD1A386A05009B
:108D7000F4660500E9F20300F0B403460A461979E7
:108D8000DB88006813430B4A876806699A4304D15D
:108D900013F4402F18BF83F44023346801258D401D
:108DA00023F48012DB074CBF2C43AC4334603B6898
:108DB000F0BC1847010010007FB5046946682060C8
:108DC000002384F82030636284F82830A4F8C0308F
:108DD000C4F8C430A4F8C83005466423012204F165
:108DE0005C0104F12C002AF0B1FA36687EB93C49E6
:108DF0003C4800960A234FF4806220F0CDFA3A49AD
:108E00003A48009602234FF4806220F0C5FA04F13C
:108E1000100037492AF049FC364904F580702AF0E1
:108E200090FC0122002104F1E4002AF0C5FB01229C
:108E3000002104F1CC002AF0BFFB6C682E69606849
:108E40002AF08BF920B96FF01204204604B070BDEF
:108E5000606883689B6A002BF5D002A998470028B8
:108E6000F1D1254B0393606883685B6A002B30D097
:108E700002A9984700282CD16068836823B11B6E33
:108E800013B132681D499847606822F03AFC606867
:108E900083681B6D03B1984768682969037BD1F823
:108EA0004041012202FA03F3C1E90243806883686A
:108EB000DB698BB10431984704460021284622F033
:108EC00077FC002CC1D1284604B0BDE8704022F0E8
:108ED000A3BC6FF01504B8E76FF05704EDE700BFCF
:108EE00000630020701B0020805E0020881A002094
:108EF0000DB70400799002000201030013B90400C9
:108F000070B54368046906460D46586883681B6A55
:108F100003B1984794F8C8308BB1002384F8C95046
:108F200084F8C83004F1CC0020F02CF8AB1DDBB283
:108F3000042B04D8152222FA03F3DB0713D4636A47
:108F40005BB194F8283043B184F8205004F110014B
:108F50000548BDE870402AF0C3BB29463046BDE84D
:108F6000704022F0A9BC70BD881A0020F8B50546F3
:108F700006690F460022002306F1E40020F03CF8C9
:108F8000044610B110F1100F36D1284622F02AFC09
:108F9000044688BBC6F8C400014686F8C17028465E
:108FA00022F0E2FB0121284622F0E4FB4FF4FA70A4
:108FB0002AF0CEF82146284622F0DCFB4FF4FA7066
:108FC0002AF0C6F8D6F8C4300133C6F8C4300121FF
:108FD000284622F0C9FB284622F0D2FB0121284670
:108FE00022F0E6FB6322002306F58071034820F09F
:108FF00011FA03481FF046FF2046F8BD701B002001
:1090000060170020F8B506460F460B484FF0FF32B8
:109010004FF0FF331FF0C0FE05253946304622F0E1
:10902000A8FC044618B1052801D0013DF5D102483D
:109030001FF028FF2046F8BD6017002070B50469B6
:109040000646C1F1030504F580702AF085FB84F81B
:10905000C050304622F0E0FB50B984F8C10004F162
:10906000E4001FF08FFF0348BDE870401FF00ABF07
:1090700070BD00BF60170020A0F58070024A006834
:109080000021FFF7DBBF00BF7C77050070B5044609
:1090900000F580702AF060FB2068002122F088FB38
:1090A0000025072D19D894F8C1102068294101F036
:1090B000010122F05FFB452001352AF049F80A2D15
:1090C000EFD1206822F04BFB03462068C3B90D4A5C
:1090D000BDE870400121FFF7B1BF082D266807D118
:1090E00094F8C10022F05AF980F001013046E0E71F
:1090F0003046012122F03EFB206822F04DFBDAE7EA
:10910000014AE5E7887705009777050013460A4688
:1091100001460148FFF7BABF800A002038B504466F
:1091200000F580702AF018FBD4F8C4300B2B10D84F
:10913000DFE803F01F060606060606060620272FB0
:1091400094F8C110013B194101F00101206822F09F
:1091500011FBD4F8C4300A2B06DC14480522002386
:1091600004F5807120F056F9D4F8C4300133C4F806
:10917000C43038BD94F8C10022F010F980F001012C
:10918000E4E72068012122F0F5FA206822F004FBD0
:10919000DFE7206822F0E3FA0346206823B9044A97
:1091A0000121FFF74BFFD4E7024AF9E7701B0020CB
:1091B000887705009777050013460A46014601485F
:1091C000FFF7ACBF800A002030B50569294689B099
:1091D00041F8800B4FF400420023CDE90623002420
:1091E0006FF00503CDE903340090CDE90144054B50
:1091F0004FF4006205F5106020F0E8F9204609B050
:1092000030BD00BF659A02002DE9F04F076999460D
:1092100097F8404A87B090460B4601B324B3002428
:1092200023462646254697F841AAB8F1000F1ED0DE
:10923000BAF1000F20D1013597F842BAB9F1000F09
:109240001ED0BBF1000F20D10135012D01DC012E14
:109250001FDD574907B0BDE8F04F22F0B9BB002C25
:10926000DFD001260D46DEE726460125DBE7BAF111
:10927000000FE1D00136DFE74FF00008C246DBE720
:10928000BBF1000FE1D00136DFE74FF00009CB461C
:10929000DBE74268527D002A46D1012D01D0012E24
:1092A00042D12E44002B42D04FF0FF324FF0FF331B
:1092B000741E3868CDE902236342634100930123A1
:1092C00019464FF4807218F02BFB012387F8403ABF
:1092D000B9F1000F40D04FF0FF324FF0FF33386844
:1092E000CDE90223B21E564256410123194600968B
:1092F00040F2011218F014FB012387F8423AB8F14A
:10930000000F40D04FF0FF324FF0FF333868CDE907
:10931000022300230093012319464FF4817218F0B1
:10932000FFFA012387F8413A07B0BDE8F08F002C1F
:10933000CED0711E4A424A414FF0FF344FF0FF3504
:1093400038680092CDE902454FF4807201210593FF
:1093500018F0E6FA059BB9E7BBF1000FCFD04FF04C
:10936000FF324FF0FF333868CDE90223B31E5E426F
:109370005E4100964B4640F20112012118F0D0FAEE
:1093800087F8429ABBE7BAF1000FCDD04FF0FF3219
:109390004FF0FF333868CDF80080CDE9022301217A
:1093A00043464FF4817218F0BBFA87F8418ABBE755
:1093B000F477050073B5046904F51E6016462AF0BB
:1093C000CBF9D4F8D039E21882F8C96943B9320729
:1093D00024D41949206802B0BDE8704022F0F8BAE0
:1093E000012B1BD094F8C819A1B9022B16D194F8FF
:1093F000CC0994F8CA3994F8C929019094F8CB099A
:109400000090206822F044FB206802B0BDE8704064
:1094100022F0D7BA012901D1032BE7E70133C4F8C1
:10942000D0394FF48042002304F51E6002B0BDE83D
:10943000704020F019B800BF0C780500024B0A46B6
:1094400001461868FFF7B6BF000000202DE9F04F75
:109450005C1E4B689DB01F680B69279E9DF8A0A0FD
:1094600093F8439A80460D4693460021602204A853
:109470002AF0E0FB002C0FDC6FF009034149049354
:1094800005A8FDF761FE602204A940462AF0ABFB67
:1094900040461DB0BDE8F08F082E09D96FF00A03D1
:1094A000394A04935023502105A820F0ABFEEAE787
:1094B000BAF1000F4AD0B9F1000F47D0284622F088
:1094C00026FB049000283BD100231BF803100393D4
:1094D000384622F06FFA039B0490013300284AD0EB
:1094E0000022CDE900425021284A05A820F08AFE3A
:1094F000049B73BB269B6BB11978384622F05AFA4D
:10950000049038B10023224A502105A820F07AFEA9
:10951000049BF3B9EEB100240DF1640B0BEB0401D5
:10952000384622F04AFA0134049038B30023CDE9DA
:109530000063184A2346502105A820F063FE08E086
:10954000154A0023502105A820F05CFE049B002B47
:10955000BAD0BAF1000F96D0B9F1000F93D02846D7
:1095600022F0BAFA034600288DD0049A002A8AD144
:109570000A4A049097E79C42A7DCBBE7B442CDDBE4
:10958000E7E700BF2E7805005B780500B47805009A
:10959000D7780500EF7805008E7805001B79050067
:1095A00000B59DB00023CDE901330146009304A826
:1095B000034A0223FFF74AFF04981DB000BD00BF15
:1095C0004379050070B59EB0CCB28DF817100546F2
:1095D0000D491C22204622F0B4FA411C11D0002370
:1095E00001222E69CDE901320DF11703009306A87F
:1095F000064A02232946FFF729FF069808B986F88C
:10960000484A1EB070BD00BF340F002045790500E8
:1096100010B501239CB0CDE9013300230093074A24
:109620000C460223014604A8FFF710FF049810B966
:109630009DF8643023701CB010BD00BF4779050051
:1096400030B502239DB014460122CDE9013200223B
:1096500000920D46074A014604A8FFF7F7FE04985A
:1096600028B99DF864302B709DF8653023701DB0CB
:1096700030BD00BF4979050010B501239CB0CDE98C
:10968000013300230093074A0C460323014604A834
:10969000FFF7DCFE049810B99DF8643023701CB00D
:1096A00010BD00BF4B7905000138C0B205289ABF34
:1096B000024B53F820000248704700BF9C4F050042
:1096C0004E7905002DE9F04F174685B08B461A46B6
:1096D0003946DDE90E58DDF8409004461E46FFF796
:1096E000AFFF824670B100248BF80040144A3C70F2
:1096F0004946347040462C7020F084FD204605B069
:10970000BDE8F08F012320468BF800302946FFF793
:10971000B3FF044618B185F800A04FF0FF343A7843
:109720001046FFF7C1FF2978029131780346CDE951
:1097300000214046034A494620F064FDDEE700BFB1
:10974000567905006979050010B501239CB0CDE973
:10975000013300230093074A0C460423014604A862
:10976000FFF774FE049810B99DF8643023701CB0A4
:1097700010BD00BFAC790500F0B59FB00DF1170624
:109780000F46314605461446FFF7DEFFB0B99DF897
:10979000173043FA07F202F0010294420ED0BC40A7
:1097A00023438DF817300123CDE90103044A0096C5
:1097B00006A804232946FFF749FE06981FB0F0BD0E
:1097C000B07905000A46024B0021FFF7D5BF00BF64
:1097D000B47905000A46024B0321FFF7CDBF00BF55
:1097E000C47905000A46024B0421FFF7C5BF00BF3C
:1097F000CD7905000A46024B0621FFF7BDBF00BF29
:10980000D679050030B5FF299FB00C4615D8002346
:10981000012205698DF81710CDE901320DF117030A
:1098200000930146064A06A80423FFF70FFE069898
:1098300008B985F8494A1FB030BD0120FBE700BFD9
:10984000DE79050030B5FF299FB00C4615D80023FE
:10985000012205698DF81710CDE901320DF11703CA
:1098600000930146064A06A80423FFF7EFFD069879
:1098700008B985F84A4A1FB030BD0120FBE700BF98
:10988000E279050030B5FF299FB00C4615D80023BA
:10989000012205698DF81710CDE901320DF117038A
:1098A00000930146064A06A80423FFF7CFFD069859
:1098B00008B985F84B4A1FB030BD0120FBE700BF57
:1098C000E679050030B5FF299FB00C4615D8002376
:1098D000012205698DF81710CDE901320DF117034A
:1098E00000930146064A06A80423FFF7AFFD069839
:1098F00008B985F84C4A1FB030BD0120FBE700BF16
:10990000EA79050001292DE9F341064690461AD16E
:10991000254A146818460A460DF10701276965684B
:10992000C04700280FDD97F8443A63B11F4930461D
:10993000FDF700FC60B96B6A013304D19DF8071094
:109940002046FFF75FFF6FF0150002B0BDE8F08121
:1099500017493046FDF7EEFB40B9AB6A0133F2D14F
:109960009DF807102046FFF76DFFECE711493046E0
:10997000FDF7E0FB40B9EB6A0133E4D19DF8071035
:109980002046FFF77FFFDEE70B493046FDF7D2FBAD
:109990000028D8D12B6A0133D5D19DF80710204675
:1099A000FFF790FFCFE700BF00000020EE79050031
:1099B000FD7905000C7A0500167A050030B58DB0EA
:1099C000074B00900C4615462821064A02A820F0B5
:1099D00019FC2A46214602A802F086FA0DB030BDD5
:1099E000277A0500317A050010B500F139010446E7
:1099F00001220B48FFF7E2FF04F13A010122094876
:109A0000FFF7DCFF04F13B0101220748FFF7D6FF17
:109A100004F13C010548BDE810400122FFF7CEBF2C
:109A2000EE790500FD7905000C7A0500167A05002F
:109A300038B5056902F0D0FB074823F012FE044652
:109A400038B905F52160054929F07BFE044802F08C
:109A500083FA204638BD00BF180F0020E9990200A4
:109A6000277A05002DE9F041044694B0066945685F
:109A700022F0AFF8204622F0E5F8002877D1A96956
:109A8000642903D0C9B22046FFF79CFD394B04AAD4
:109A900003F1100C904618685968174603C708333D
:109AA00063453A46F7D1186838602C22002109A88E
:109AB0002AF0C0F84023CDE9018306F6472300933E
:109AC00006F6452206F6462306F644212046FFF711
:109AD000F9FD96F8443A93B32B7F1BB10121204640
:109AE000FFF770FE296A4F1C02D02046FFF7EAFEFE
:109AF000696A481C02D02046FFF784FEA96A4A1C06
:109B000002D02046FFF79EFEE96A4B1C02D0204699
:109B1000FFF7B8FE95F830301BB101212046FFF762
:109B200059FE95F831301BB101212046FFF75AFE4E
:109B300095F832301BB101212046FFF75BFE2B7DEB
:109B40001BB10121204622F00AF82046FFF770FFE2
:109B50002868D6F8501A83681B68984738B9204699
:109B600021F0BAFF044906F51E6029F0EAFD14B0A1
:109B7000BDE8F081377A0500F1B90400014827F00B
:109B80000CBA00BF4C470500012B07B50ED1127867
:109B90000848012A14BF002257228DF8072000210F
:109BA0000DF1070227F06BF903B000BD6FF08500DF
:109BB000FAE700BF4C470500012B13B5144611D13D
:109BC0000A480DF10702002127F07FF9002807DB82
:109BD0009DF80730A3F157025342534123700020F0
:109BE00002B010BD6FF08500FAE700BF4C470500DA
:109BF00001481FF0CBBB00BF600F002001481FF0E1
:109C0000C5BB00BF500F002007B529F01DFF4FF462
:109C10007A72A0FB020302FB0133C00B40EA43400F
:109C2000064B4FF40042186000230548CDE900239D
:109C300020F066FA002003B000BD00BF602E0020B7
:109C400080160020014B187800F0A2B9165D0020A4
:109C5000044B1A78824202D01870FFF7F3BF00203D
:109C6000704700BF165D002008B529F0EDFE4FF4E7
:109C70007A72A0FB020302FB0133C00B40EA4340AF
:109C8000064B1B68C01A47F23053984204DDBDE80A
:109C900008400120FFF7DCBF08BD00BF602E002098
:109CA00008B529F0D1FE4FF47A72A0FB020302FB43
:109CB0000133C00B40EA4340034B1860BDE8084045
:109CC0000020FFF7C5BF00BF602E0020014B1878B1
:109CD000704700BF165D0020F8B5064610B9002495
:109CE0002046F8BD0378002BF9D00F4D0F4FBD4231
:109CF0000FD30D4DBD42F2D2286829F02EFA30B1B3
:109D00002C6831462068FDF715FA0028E8D00435A4
:109D1000F0E7286829F021FA18B12C682368B342CB
:109D2000DED00435E3E700BFC09E0500CC9E0500F1
:109D300030B5194C8DB019480022002303A91EF03C
:109D4000C9FF08B10DB030BD2368059D5868DDE935
:109D5000031221F0C7FF0028EDDBFF238DF8183038
:109D6000B5FA85F35B0907908DF8203029F06CFE79
:109D70004FF47A72A0FB020302FB0131C00B40EAF0
:109D80004140C90B8DE8030006ABCDE90A010FCBBA
:109D900000F018F9CFE700BFFC2E0020CC17002000
:109DA0001FB50A4C2468A46884420DD183F00103D6
:109DB000CDE90112039306480022002301A91EF0F9
:109DC0002DFF04481FF0E2FA04B010BDFC2E002065
:109DD000CC170020EC2E00201FB50023CDE9023364
:109DE000044B8DF80C0001A8019321F0A1FF05B0F0
:109DF00000BD00BFB4500500044B1A68044B9A42E2
:109E000014BF6FF012000020704700BFFC2E00202E
:109E10009C50050038B5054600282ED01A4C236802
:109E2000834228D053B1986840B183685B6803B11E
:109E3000984723680021986800F082FE1349144B6C
:109E400022228D4214BFED210021002021F063FF6A
:109E5000B0B9A868256070B1012100F071FE2368D7
:109E6000986883680B491B689847236898688368DB
:109E70009B6803B19847002038BD6FF01200FBE7E4
:109E80006FF01500F8E700BFFC2E00209C50050085
:109E9000642E0020A19D020010B540B90548FFF7CF
:109EA000B9FF044608B9FFF797FF204610BD6FF0D1
:109EB0001504FAE79C500500F7B50D4616460D4906
:109EC00001AA1F4623F0D0FB68B1019B6BB9012D9D
:109ED0000DD1094C2A4621463846B047002802DDFC
:109EE0002078FFF7D9FF03B0F0BD0020FBE76FF04B
:109EF0001500F8E7787A0500CC1500200148FFF737
:109F000089BF00BF9C50050008B50B480B4929F0DC
:109F1000CCFB0B4823F0FCF918B10948012123F0D0
:109F2000D5F9084A002342F8043B0133222BFAD129
:109F3000BDE80840FFF7E2BFEC2E0020319D020093
:109F40007C470500642E0020F8B50F4D0F4B5B1BBE
:109F500007460C4605EBC105C3F3C706B44201DB57
:109F600000200CE02A683B689A4209D13C716B687A
:109F700038461B68984718B1431E012BF0D9F8BD2D
:109F800001340835EAE700BF148405003C8405006D
:109F90001FB50023CDE90233044B8DF80C0001A856
:109FA000019321F0C5FE05B000BD00BFB85005000B
:109FB0000268034B9A420CBF08300020704700BF74
:109FC000B850050084B030B589B00CAC84E80F00FF
:109FD000002301930CAD084B00930FCD02AC0FC4CE
:109FE00095E8030084E80300684621F0A1FE09B06B
:109FF000BDE8304004B07047BC5005000268034B18
:10A000009A420CBF08300020704700BFBC500500CA
:10A010001FB50023CDE90233044B8DF80C0001A8D5
:10A02000019321F085FE05B000BD00BFC4500500BE
:10A0300082B038B50546CDE9042311481EF03EFC38
:10A040000446A0B16B68012B0CD0022B05D0A3B93C
:10A05000BDE8384002B021F08ABE21F08FFE002812
:10A060002046F5DCBDE8384002B021F079BE6FF043
:10A070000400BDE8384002B070476FF08500F8E793
:10A08000347B050082B010B50446CDE902230B48AD
:10A090001EF014FC78B16368022B04D00020BDE8E8
:10A0A000104002B0704721F069FE0028CCBF0020AC
:10A0B00001206060F2E76FF00400F0E7347B0500F8
:10A0C00030B5044687B00D4883681D68A5B10023EC
:10A0D00000931A462146A84770B90223ADF808300C
:10A0E000A388ADF80A30E388ADF80D3002A8A36864
:10A0F000CDF8113000F07EFB07B030BD744605008E
:10A100001FB50023CDE90233044B8DF80C0001A8E4
:10A11000019321F00DFE05B000BD00BF0C510500FC
:10A120000268034B9A420CBF08300020704700BF02
:10A130000C51050008B500F0BFFBBDE8084001491F
:10A1400029F0CEBA740F002037B5104CA568302125
:10A15000EB6820469847B0B930212B696A46204603
:10A16000984780B90A4C00982378834203D0207026
:10A17000FFF7C6FF38B901F08BFE2378984202D072
:10A18000184601F08BFE03B030BD00BFAC470500A0
:10A19000175D002007B5084828F0DFFF48B14FF4ED
:10A1A000F0120023CDE900230448002200231FF011
:10A1B000A7FF03B000BD00BFAC470500B8160020E4
:10A1C00008B5054828F0C9FF18B1FFF7E3FF0020E4
:10A1D00008BD6FF01200FBE7AC47050008B5FFF7BC
:10A1E000E7FE10B96FF0850008BDFFF76FFD38B1CD
:10A1F0000138C0B20128F5D8034829F06FFC01E00E
:10A20000FFF7C8FF0020EFE7B81600201FB50023B6
:10A21000CDE90233044B8DF80C0001A8019321F025
:10A2200087FD05B000BD00BF1451050030B587B0F3
:10A230008C89ADF815400724029404AC0194064DB6
:10A24000BDF828400495009401258DF8145025F0A0
:10A25000B8FE07B030BD00BF1B0000271FB510249B
:10A260000294044C0194BDF81840009425F0A9FE16
:10A2700004B010BD2D5D002008B5BDF808101944CC
:10A28000012908DC3BB1054B127805481A701FF014
:10A290007DF8012008BD6FF00600FBE7185D002087
:10A2A000E40F0020014B1878FFF7F6BD185D002081
:10A2B00007B5064B00930649064805234FF4407244
:10A2C0001FF06AF8002003B000BD00BF1851050060
:10A2D00080670020581C002070B50E4E8AB00E48D2
:10A2E0000022002369461EF0F5FC044608B10AB0BE
:10A2F00070BD2146182204A829F09CFC10230DEB08
:10A30000030120460596CDF818D0ADF81C3007F0B3
:10A3100011FAE4E734510500FC1700201FB50E497F
:10A320000E4840F6CD4200231EF078FC044670B182
:10A3300010F10B0F08D100220023694607481EF0D8
:10A34000C9FCFFF7EBFF0446204604B010BD0449EA
:10A35000044829F0C5F9F7E72D5D0020FC1700201F
:10A36000840F0020581C00202DE9F04F0378022BA9
:10A370008FB01AD0032B10D0002B60D14378314D11
:10A3800003F00701DC0801238B4081782A5DDBB2F2
:10A3900039B113432B55FFF7C1FF00200FB0BDE8C3
:10A3A000F08F22EA03022A55F5E7477890F80380F8
:10A3B000B0F805A0D0F8099090F802B0224C002621
:10A3C000224BD4F800C003AA03F1100E1868596894
:10A3D000154603C5083373452A46F7D11B782B7001
:10A3E00003A9604623F00FFC054600BB94F8343007
:10A3F0009F421CD1BBEB000B18BF4FF0010B014675
:10A40000182208A88DF80480ADF805A0CDF80790B3
:10A410008DF80BB029F00EFC01AB0A9308A90823B4
:10A4200028460994ADF82C3007F084F9B6E70136D8
:10A430000D2E04F11404C3D16FF01200AEE76FF0DB
:10A440008500ABE72D5D0020205105004C4C050038
:10A45000014B1970704700BF405D0020014B186030
:10A4600000207047002F0020084B09491A78094B3B
:10A4700009781B78002061F307005B00DBB262F310
:10A480000F2082B063F3174002B070473E5D00209A
:10A490003D5D0020415D002013B50C4B1C6894B15C
:10A4A000FFF7E2FF8DF80400C0F30723C0F3074075
:10A4B0008DF805308DF8060001990548234602B055
:10A4C000BDE81040184702B010BD00BF002F0020AB
:10A4D000CC9E050010B5002003F026FB044610B901
:10A4E000024823F0BEF8204610BD00BFF40F002044
:10A4F00010B5084805F028F9074805F03DFA074B64
:10A50000074800241C70074B01221A701EF03EFF02
:10A51000204610BD30100020201000203F5D00209C
:10A52000101000203D5D0020044B1B782BB1044B24
:10A53000044800221A701EF029BF70473E5D0020BB
:10A540003F5D0020541000200B4B07B5187028B158
:10A550000A481EF01BFF002003B000BD019008490F
:10A56000012001AA04F0ACFE019810B1132124F0DF
:10A57000FEFA04F067F9EEE73E5D0020541000207B
:10A58000BFBE04000B4BB1FA81F010B540090C4678
:10A590001870FFF73BFE3C2C0AD1074B1B783BB1F0
:10A5A000064B074801221A70BDE810401EF0EEBEAF
:10A5B00010BD00BF415D00203E5D00203F5D0020DA
:10A5C0005410002070B503788AB004460E4607ADDB
:10A5D000032B20D8DFE803F002191B1D1149284680
:10A5E000FCF7B2FD059563780493A3780393E378B1
:10A5F00002932379019363790093A3790A4A1E2178
:10A6000030461FF0FFFD0AB070BD0849E7E7084972
:10A61000E5E70849E3E7084A0A2128461FF0F2FD6A
:10A62000E0E700BFDA7B0500037C0500E17B050065
:10A63000E87B0500F27B0500FC7B050000B589B0D6
:10A6400024F043FB6946FFF7BDFF034B0020187061
:10A65000FFF7DCFD09B000BD415D002070B5204E64
:10A66000204B3068B2881C781F49B3798AB003AD9B
:10A670000390ADF8102000202A46AB7108F014F9C1
:10A6800031460722284629F07BFC184B0646D0B1FC
:10A69000ACB903202246214601241C700023CDE9D9
:10A6A0000602CDE90815ADF814308DF81630009388
:10A6B0001A46194605A804F08FF80AB070BD132099
:10A6C000A022F021E8E70A4D18700FCD05AC0FC4A9
:10A6D0002B6823600749009633460322EAE700BF50
:10A6E000BA8005003F5D0020F9A60200405D002011
:10A6F000104C05003452050038B507220C460649B7
:10A70000054629F03DFC28B12B682360AB88A38067
:10A71000AB79A37138BD00BFBA800500004870470F
:10A72000CC9E050073B5194C194EB442254602D390
:10A730006FF0120007E023689B6833B9154C23685B
:10A74000AB4212D1002002B070BD9847C0F307237E
:10A750008DF804008DF80530C0F30743C0B204340F
:10A760008DF806300028E0D0E8E723B11B685B686D
:10A770000BB1002098472B6825605B68002BE1D067
:10A78000012002B0BDE87040184700BFCC9E050014
:10A79000D09E0500042F002007B5094B01911B68CE
:10A7A000834207D19DF8063033B903B05DF804EB5E
:10A7B000FFF7B8BFFFF7B6FF002003B000BD00BF32
:10A7C000042F002038B5084C084DAC42234603D373
:10A7D000BDE83840FFF7A6BF1B68DB680434002BD8
:10A7E000F3D003489847F0E7CC9E0500D09E0500C3
:10A7F00099A70200054B1B6823B11B6813B11B68A6
:10A8000003B118476FF01200704700BF042F0020FB
:10A8100008B5044800F0CCFD002818BF6FF0150003
:10A8200008BD00BF51A80200084B1B780B2B4FF04E
:10A8300001000AD8984010F4CD6F05D110F4016FD3
:10A840000CBF01200020704702207047E115002056
:10A850000A2808B5024613D00A4B0B491870FFF7B7
:10A86000E3FF02280AD10B78032A08BF43F0010353
:10A870000B70BDE8084005481EF088BD0023F7E7CF
:10A8800008BD00BFE1150020425D002064100020DB
:10A8900007B5064B0093064906480A234FF4407259
:10A8A0001EF07AFD002003B000BD00BF505205002D
:10A8B000006B0020401D002000487047401D002014
:10A8C00030B50A4C0A44914200D130BD11F8013B29
:10A8D00058400309E35C83EA0013DDB2C3F30313BA
:10A8E000E05C80EA0510C0B2EDE700BFA280050081
:10A8F000014B1B68184700BF74100020014B186003
:10A90000704700BF7410002030B585B004460D4676
:10A9100010220021684629F08DF902238DF80230BB
:10A920002A46044B0193214668461FF033FD05B0CB
:10A9300030BD00BFF1A8020008B50446EFF3118353
:10A94000202383F31288BFF36F8F1AF03DFD20465A
:10A9500001F07AFE024821F034FD22F0DEFFFCE730
:10A960004D7C05002DE9F047068B044630079046E4
:10A970000CD501290CBF46F0100646F020062683B0
:10A9800088F31188BFF36F8FBDE8F087022906F0C6
:10A99000070640F08D80204621F0C1FD05285FD8D4
:10A9A00001A353F820F000BF81A90200B1AA020060
:10A9B00061AA020025AA02003DAA02004FAA0200D5
:10A9C00001F007035A1F012A1DD80022062B256813
:10A9D00021F00701C4E9002209D135B12B46628B71
:10A9E000013262831B68002BF9D141F002012183FF
:10A9F000204621F094FD4FF00009002866D041F078
:10AA00002001218362E0042B09D121F00701218379
:10AA1000204621F084FD10B141F020012183002562
:10AA2000A94653E02369D3F80090238B23F0070352
:10AA300043F00603238300252F4647E02369D3F81C
:10AA40000490238B23F0070343F00403F2E7236908
:10AA5000D3F80890238B23F0070343F00503E9E7BD
:10AA60000025A946E8E7012243F00803238388F381
:10AA70001188BFF36F8F002A36D1002D47D1B9F16D
:10AA8000000F02D02A492046C847EFF3118820233F
:10AA900083F31288BFF36F8F238B23F008039BB2DD
:10AAA0002383D9063BD523F01002228303F0070647
:10AAB0006769218B002F83DA0023256821F00701C5
:10AAC000C4E9003341F0010121839946238B03F04F
:10AAD000070AB24502D0A268002AC4D115B9B9F15B
:10AAE000000FDED00022BFE7A1680029C5D00E68A4
:10AAF0000029C2D0D1F804803B4652462046C047C8
:10AB00001EB1336831461E46F2E73346FAE729465E
:10AB10003B46524620462D6821F02DFDADE79A06B2
:10AB20007FF52EAF23F02002228303F0070632E7E1
:10AB3000A1C50400014B0360002070475852050076
:10AB400070B544690D46002C3FD0244A2379565CE9
:10AB5000B3423DD0224A525C9A423CD1A368984706
:10AB6000002814DA022D10D0032D0FD110F1860F1A
:10AB70000BD0BFF35B8F54E8003F43F0020344E87F
:10AB80000032002AF7D1BFF35B8F267170BD022D12
:10AB9000267101D00020F9E7BFF35B8F54E8003F36
:10ABA00023F0040344E80032002AF7D1BFF35B8F9F
:10ABB000BFF35B8F54E8003F23F0020344E8003208
:10ABC000002AF7D1BFF35B8FE4E76FF05700DDE7B2
:10ABD0006FF07700DAE76FF08500D7E7B680050001
:10ABE000B280050070B5114B1C680D4694B1104B36
:10ABF000196800238B4202DB6FF0010070BD224612
:10AC000012F8106B864208D001331446F2E72C602C
:10AC10000020F3E76FF00C00F0E7E06828F09DFA01
:10AC20000028F4D16FF01200E8E700BF7810002090
:10AC30005852050010B588B0436802938368C06815
:10AC4000CDE903320A680023CDE906230C4601AAA8
:10AC50000449059326F023FB079808B9059B236058
:10AC600008B010BD6FD30400F0B40C4B0C4E5F6AFB
:10AC70000C4BB34203D36FF08500F0BC70475D68A6
:10AC8000BD4209D31C693CB195F802C00579AC45B9
:10AC900002D12346F0BC18472433EAE7082F0020EE
:10ACA000841A0020601A00202DE9F047134CDFF8C9
:10ACB0005080DFF8509005460E461746444503D3B2
:10ACC0006FF08500BDE8F0876068D9F824309842BD
:10ACD00012D3A36983B181782A79914205D13A468A
:10ACE00031462846BDE8F04718474279012A03D18A
:10ACF0003A463146284698472434DFE7601A002058
:10AD0000841A0020082F00202DE9F0410A4C0B4D39
:10AD100006460F469046AC4202D36FF0850009E02C
:10AD200063690BB92434F6E7424639463046984702
:10AD30000028F7D1BDE8F081601A0020841A0020B5
:10AD400010B5044626F080F910F1780F00D050B904
:10AD5000054A204622F046FBD2F8C43023EA00031D
:10AD6000C2F8C430002010BD082F0020024B002282
:10AD70001A605A60704700BFC32F002070B50B4B9C
:10AD80000B4CA34201D3002070BD196A1E7F002224
:10AD90000439D5B2AE4201D82433F2E7013211F8BA
:10ADA00032508542F5D10120EEE700BF601A002045
:10ADB000841A002008B509480378C3F341130A3305
:10ADC00050F823303BB100F1080200F11001984720
:10ADD000C043C00F08BD1846FCE700BF082F002085
:10ADE00004282DE9F14FDFF89C900646884615D0DF
:10ADF00001282CD1214F97F8B93043B300F0FAFD68
:10AE00001F4C4C4520D2D4F820B04FF0000A237FCD
:10AE10005FFA8AF5AB4204D82434F2E7FFF7A6FFC5
:10AE2000E8E70BEBC5050AF1010A287926F00CF9D1
:10AE30000246287922F0D6FAD7F8C430002A23EA4D
:10AE40000003C7F8C430E2DA002387F8B9300C4CAD
:10AE50004C4508D3094B1B6A6BB14146304601B0E3
:10AE6000BDE8F04F1847E3681BB142463146204623
:10AE700098472434ECE701B0BDE8F08F082F00209C
:10AE8000601A0020841A002073B5C4B263060E460F
:10AE90008DF8074007D02046FFF770FF78B10D4BC3
:10AEA00093F8BA0058B10B4D204656B117F046F949
:10AEB000EB691BB10DF1070108209847012002B092
:10AEC00070BD17F063F9EB69002BF7D00DF10701A6
:10AED0000920F2E7082F002073B585788DF800501F
:10AEE000037942791C4C43EA0223ADF80230C3785F
:10AEF000284603F003038DF8043022F073FAD4F8E7
:10AF0000C430184206460BD0284600F055FD2846AE
:10AF1000FFF716FF28F06AFC10B996201EF0D2FD4C
:10AF2000684617F0E7F810F1780F03D010B1002051
:10AF300002B070BD9DF8000017F064F910F1780FB1
:10AF400001D00028F3D1D4F8C4300120334384F871
:10AF5000B900C4F8C430EBE7082F00202DE9F04712
:10AF60009E4EB36904460F4690466BB9237803F0B2
:10AF70001F03012B00F0A180022B00F0058143B1DB
:10AF80006FF01500BDE8F08798470028EED100204B
:10AF9000F8E794F90010627899422FDA062A10D067
:10AFA000082AD8F8001024D0002AE9D101230B7018
:10AFB0004A7096F8C3305B0043F001030B70022324
:10AFC00021E16188080A021F012A0546D8D907280D
:10AFD000D6D8726AC9B21478002CD1D05678AE4255
:10AFE00003D1994200F0098101332244F3E7137839
:10AFF00009E196F8BA300B70012304E1013A082AFE
:10B00000BED801A353F822F0A1B0020081AF020024
:10B01000B1B0020081AF02002DB0020081AF02008A
:10B0200081AF020081AF020039B00200A07817F0B2
:10B030004FF80028ABD0A3E763883BB1FF27756AC0
:10B040000020B8462B786BB9002899D0FFF78EFE08
:10B05000638886F8BA30F369002B98D060490320E2
:10B06000984794E76B78042B0DD0052B0ED0022B5C
:10B0700006D16F796388BB4208BF40F00100C0B2BF
:10B080002B781D44DEE795F80380F9E76388BB421F
:10B09000F6D1B8F1000FF3D12846FFF71DFFEFE717
:10B0A0006388012B7FF46CAF002386F8C3306EE712
:10B0B0006388012B7FF464AFF7E796F8BA30002B72
:10B0C0003FF45EAF756AA38894F804C02A461178ED
:10B0D00000293FF455AF5078022804D192F804E0DB
:10B0E000E64500F292800A44F1E70A704A7038603F
:10B0F0004DE7154497E00B2A7FF442AF00274FF04D
:10B10000FF08C146BA4606E06B78042B0FD0052B2A
:10B1100021D02B781D442B78002BF5D1F36913B186
:10B12000514607209847002F7FF431AF28E795F864
:10B130000280A38895F803909845EAD163889945E1
:10B14000E7D1B8F1070F1CD806EB0803AA4683F82D
:10B15000BB900127DDE7A3884345DAD1A3784B45AF
:10B160000AD0AF78384600F027FC3846FFF7E8FDF4
:10B17000B0FA80F77F09CCE72846FFF7ADFE074617
:10B18000C7E7AA460027C4E794F900206378002A9D
:10B1900019DA002B7FF4F4AE25796B060AD0284625
:10B1A000FFF7ECFD00283FF4EBAE96F8BA30002B29
:10B1B0003FF4E6AED8F800402846214617F006F8DE
:10B1C00000236370FBE6012B0CD0032B7FF4D8AE79
:10B1D0006388002B7FF4D4AE012107E0082F002004
:10B1E000C22F0020618800297FF4CAAEA088FFF733
:10B1F0004BFE00287FF4CBAEC2E60228C8F8002040
:10B200007FF4F5AE53883B60C1E694F90010627894
:10B210000029BFF670AFD8F80010002A3FF465AFE0
:10B220000A2A7FF4ADAE2A78002A3FF4A9AE6878E6
:10B2300004287FF45EAFA87883427FF45AAF072BCF
:10B2400096BF9B19002393F8BB30D4E613B5164C78
:10B25000237DF3B9E268A168019201AB802022F05E
:10B26000CFF8019AA3681344A360E3689B1AE360D4
:10B270006BB962B12369E2889A4208DD94F8C8206C
:10B2800093FBF2F102FB11330BB90123237502B0DA
:10B2900010BD00231A4619468020237502B0BDE870
:10B2A000104016F0D9BF00BF082F002030B585B080
:10B2B000002302460D460193002857D1002934D1BE
:10B2C00008220DEB020125F0D8FEA84204DA802006
:10B2D00016F034FF05B030BD294C029A2260039A63
:10B2E000626004F13802A2609DF90820BDF80E30BA
:10B2F0002575002AC4E903550ADB802B04D9802078
:10B3000016F01CFF0020E3E713B1C4E90333E1E7C3
:10B31000FFF750FD0028DAD0E28823699A42D4BFB3
:10B32000E260E360FFF792FFD4E7154CD4E9021521
:10B33000002D01AB04DC25F0A0FE0028CADAC6E728
:10B340002A4625F09AFE0028D9DB019AA368134407
:10B35000A360E3689B1AE360002BBBD104F13803C0
:10B36000A360FFF727FD0028DCD1B0E78028B1D12A
:10B37000034BDA68002AD5D11B7D002BD2D1A9E777
:10B38000082F0020054B064A9A62064ADA62064AEE
:10B390001A63064A58629A6100207047082F0020FD
:10B3A0005DAF020069AC020009AD0200A9AC020069
:10B3B0002DE9F3410446454D45484FF0FF334FF02A
:10B3C000FF321DF0E9FC95F8B830002B78D16E6A99
:10B3D00036B900F0CBF8FFF7D5FF6E6A002E66D0C5
:10B3E0003C482C62E86117F045F816F043FE041E55
:10B3F0005FDB00F021FB041E5BDB7378012B62D165
:10B40000F379002B5FD00026684685F8C830ADF888
:10B4100002308DF804608DF8006016F06BFE041E9B
:10B4200047DB802768468DF8007016F063FE041E27
:10B430003FDB2949304617F009F8041E39DB26495D
:10B44000384617F003F8041E33DB244CDFF89080F5
:10B4500044451AD3002016F0D5FE041E29DBD5F88A
:10B46000C430802043F00103C5F8C43016F0CAFE92
:10B47000041E1EDBD5F8C43043F48033C5F8C43055
:10B48000012385F8B830002413E0276A0026227FC4
:10B49000F3B29A4201D82434DAE707EBC30257F833
:10B4A0003310107916F0D2FF01360028EFD04FF09C
:10B4B000FF3407481DF0E6FC204602B0BDE8F081ED
:10B4C0006FF07704F5E76FF01504F2E7082F00201E
:10B4D00088170020E1AD0200ADB20200601A002022
:10B4E000841A002030B51F4B8BB005AA03F110055C
:10B4F00018685968144603C40833AB422246F7D192
:10B500001B7823701022002101A828F093FB12223F
:10B510000021154828F08EFB102101A826F02CF8F8
:10B5200000281BDDADF105010F4A0828ACBF091842
:10B530000831002011F8013F0AAC04EB131403F0AA
:10B540000F0328336B44013014F8144C13F8143CE7
:10B5500014700828537002F10202EBD102480BB0BC
:10B5600030BD00BF767C0500445D00202DE9F04F22
:10B57000714B93F800B087B0BBF1000F03D06F4858
:10B5800007B0BDE8F08F6D4C00264FF0011AB046B1
:10B590003546B14623783BB9694B02349C42F3D11E
:10B5A000654A01231370EAE76378052B05D8DFE8C5
:10B5B00003F08F07038F1F3BA14623781C44E9E764
:10B5C000402304A88DF810B0ADF812308DF814B0F7
:10B5D00025F026FD40B1082304A8ADF8123025F06F
:10B5E0001FFD08B1ADF812B0BDF81230E371E4E709
:10B5F000E378002BE1D1A3786BB108F101085FFA81
:10B6000088F8DAE76B689C4207D024354D4B9D42A1
:10B61000F8D30020B4E74C4DF8E7AB68002BECD032
:10B62000414620469847E8E7002DF2D000222B7FC4
:10B630009A42EED2296AA07801EBC2010B799842B6
:10B6400044D10127E07800F003008DF81400207940
:10B6500094F805C040EA0C20ADF8120094F90200FD
:10B6600000283B4628DA07F110004FF0010C0CFAD5
:10B6700000F010EA0A0F26D167F07F008DF8100065
:10B6800004A8CDE90213019225F0CAFCDDE90121ED
:10B69000039BC0B99DF81020A27012F0800F18BF54
:10B6A00010330A7118BFDBB24FF0010214BF9A4089
:10B6B000BA404AEA020A80E70120B84010EA0A0FBD
:10B6C00001D13846DAE70137102FBBD10132AEE79E
:10B6D000032E1AD1FFF706FF074650B1FBF73CFDDA
:10B6E00038B1102802463946A8BF1022A01C28F005
:10B6F0007AFA23786FF002011A19091B04EB53033D
:10B70000D14212D50136F6B257E7002EF1D1B9F188
:10B71000000F3FF47EAFA4EB090389F802301B0A47
:10B7200089F8033089F80480ECE702F801BC13F8CB
:10B73000010902F8020DE3E7435D0020C019002073
:10B740005F1A0020841A0020601A002010B5094BEF
:10B7500000211A461C78844205D15C681CB148233C
:10B7600003FB012010BD0131042903F14803F1D18D
:10B770000020F7E7D42F00202DE9F34150F8303CAA
:10B7800010F8346C103304460AD1036950F8282CA1
:10B79000980736D5D2B9590715D5002344F8303C5F
:10B7A00054F8303C10330BD054E9097554F81C8C14
:10B7B00028F01CF800284FD02E48214627F090FF93
:10B7C00002B0BDE8F08143F00403236154F82C1C5F
:10B7D00001AB304621F014FE10B16FF01503DDE728
:10B7E000019A54F82C3C134444F82C3C54F8283C5F
:10B7F0009B1A44F8283C54F8243C134444F8243C55
:10B80000CEE754F82C1C01AB304616F099FD002809
:10B81000E3D1019D54F82C3C2B4444F82C3C54F8C3
:10B82000283C5B1B44F8283C54F8243C2B4444F847
:10B83000243C002DB1D0304616F022FEB5FBF0F3CB
:10B8400003FB1055002DA8D154F8283C002BA4D0A0
:10B85000304616F0BBFDA3E744F8200CA4F1180015
:10B860001DF090FB002DABD0424639463046A8472C
:10B87000A6E700BF281E00204B1E012B73B506460D
:10B880000D460FD8FFF762FF044668B9012D09D1B4
:10B8900001AB01220DF10301304616F051FD019B71
:10B8A000002BF5D102B070BD27F0A0FF04F13401E8
:10B8B00008B1012D05D1084602B0BDE87040FFF780
:10B8C0005BBF034802B0BDE8704027F009BF00BF6E
:10B8D000281E00202DE9F74F804600911746994613
:10B8E00021F0D6FD00285DD1EFF3118A202383F3E8
:10B8F0001288BFF36F8F2D490646002208460023A9
:10B9000001911DF079FB019968B9DFF8A8B04822D0
:10B9100072430BEB0204656815F1100F12D1084653
:10B920001DF030FB06E00136042E01F14801E4D1A0
:10B930006FF00B058AF31188BFF36F8F284603B0B1
:10B94000BDE8F08F0BF802800C9A009B62610D9AA3
:10B950002061A26140466FF00F02C4E90237C4F8CB
:10B960004490626016F08CFD58B1404616F088FD98
:10B97000B7FBF0F202FB10771FB1626C42F00402D9
:10B98000626419F0020F08D0482202FB06B1084891
:10B99000343127F0A5FE0025CCE7404616F016FD11
:10B9A0000546C7E76FF00F05C8E700BFF02F00207E
:10B9B000281E0020D42F002010B5EFF3118420237F
:10B9C00083F31288BFF36F8FFFF7C0FE50B1436857
:10B9D000103307D16FF08B03436000F1340104484A
:10B9E00027F07EFE84F31188BFF36F8F10BD00BF78
:10B9F000281E0020F8B50E4C04252027EFF31186F1
:10BA000087F31288BFF36F8F6368103307D16FF02D
:10BA10008B030848636004F1340127F061FE86F36C
:10BA20001188BFF36F8F013D04F14804E6D1F8BDE2
:10BA3000D42F0020281E002038B5094C00250949C4
:10BA4000204627F032FE0122A4F1180011460135EC
:10BA500027F0B2FD042D04F14804F0D1002038BDD8
:10BA60000830002079B702000169012381F84B30CA
:10BA70000B6833B191F849301BB10248083127F007
:10BA80002FBE7047281E00200169012381F84A302B
:10BA90000B6833B191F848301BB10248083127F0E8
:10BAA0001FBE7047281E002070B50569EFF3118690
:10BAB000202383F31288BFF36F8FD5F8900020F016
:10BAC0008CFE044686F31188BFF36F8F30B10448B3
:10BAD0000022002305F118011DF09CFC204670BDDA
:10BAE000281E002070B5012382F8483013680D46E7
:10BAF00014463BB192F84A3023B10E4802F10801D6
:10BB000027F0EEFDD4F890301A699B689A420AD16A
:10BB10007DB904F1180140F6CD42BDE870400548FA
:10BB200000231DF077BC002DF3D004F11801002292
:10BB3000F3E770BD281E002070B504460E4601795B
:10BB40001548154621F080FC10B394F90020637865
:10BB5000002A16DB202B04D0222B0ED06FF085009C
:10BB60000AE02B681A6840F8102C9A8820F80C2CF0
:10BB70009B7900F80A3C002070BD638800F8093CFE
:10BB8000F9E7212BEAD11038072328603360F2E768
:10BB90006FF01200F0E700BFF430002008B5014656
:10BBA000034821F05FFC10B1012300F8073C08BDF9
:10BBB000F43000200D4A03460021A0F84810106818
:10BBC000C3F8940090889279A3F8980083F89A209B
:10BBD00083F89C1083F89B10A3F89E1083F8A010A4
:10BBE000402203F14C0028F025B800BF5D4C050051
:10BBF00010B504690023C4F8A8300C4BC4F8A400A5
:10BC0000596804F1A80269B9C3E9002204F10800E7
:10BC1000074927F04AFD04F11800064927F091FD75
:10BC2000002010BD0A605A60F0E700BFF430002029
:10BC3000B9D40400ADBC020073B504698DF80710D7
:10BC4000002384F848302025EFF3118685F312880D
:10BC5000BFF36F8F0122D4F890000DF1070120F09F
:10BC6000BCFD86F31188BFF36F8F012807D027F042
:10BC7000BDFD68B10B4B1A780AB901221A70212256
:10BC8000002304F1180108481DF0C4FB02B070BD88
:10BC900094F8A130002BEDD00021212027F05BFE8D
:10BCA000D2E700BF565D0020281E0020F0B5D0F876
:10BCB0008C305B681B6A1E7D85B00546304621F0DE
:10BCC000E7FB074648BB95F8863033B3A86F0146BB
:10BCD000836851F8102F9B1AB3F5806F28BF4FF47B
:10BCE000806303AA20F031FD0446B0B18206A5F1BD
:10BCF000180308BF00F1FF3485F830700193084B3A
:10BD000003990093224602233046FFF7E3FDA86F14
:10BD1000224600F1100120F04AFD05B0F0BD00BF41
:10BD2000E5BA020037B514460A1E054620DDD4F8F0
:10BD30008C0004F14C0120F050FD012384F84930BF
:10BD400023683BB194F84B3023B1114804F108014A
:10BD500027F0C6FCD4F88C104B684A699A1ACB6954
:10BD60009B1A3F2B04D8012384F8A03003B030BDC8
:10BD700094F89E30002BF9D0064B009301940123D8
:10BD8000402204F14C012846FFF7A4FDEEE700BF76
:10BD9000281E002025BD020073B50D4601461D4832
:10BDA00021F046FB044610B3691EA0F1A406052944
:10BDB0001DD8DFE801F01E1C031E242810F8061C05
:10BDC000A9B903685D68012300F8063C2B6A324676
:10BDD000187BFFF7A7FF14F85C2C42B92B6A187D7B
:10BDE0000D4B0093019602231146FFF773FD02B03D
:10BDF00070BD304602B0BDE87040FFF7DBBE0123E6
:10BE000004F8053CF3E710F8053C002BEFD00023C5
:10BE1000F6E700BFF4300020E5BA020013B50024B5
:10BE20000749084800944FF0FF334FF480621DF03B
:10BE3000B3FA0549034827F0DFFC204602B010BDE5
:10BE4000806E0020281E00209A7C05001FB5072464
:10BE50000294044C0194BDF81840009424F0B1F809
:10BE600004B010BDE215002010B5084C86B024784F
:10BE70008DF81740012402940DF117040194BDF8C8
:10BE80002040009424F09DF806B010BDE915002074
:10BE9000014B1878704700BFE915002000B589B044
:10BEA00064288DF8070018D80D4B1822187000214F
:10BEB00002A827F0BFFE0B4B03930DF10703049379
:10BEC00002A901230020ADF8143005F033FC10F175
:10BED000800F08BF002009B000BD6FF01500FAE721
:10BEE000E91500203C5305002DE9F0410E4B1C687C
:10BEF00006460F469046A4B14FF0FF324FF0FF3395
:10BF00000A481CF049FF63683A469D68314643463B
:10BF10002046A847044605481CF0B4FF2046BDE86B
:10BF2000F0816FF00104F9E7FC3000207417002065
:10BF300000230360044B5A6812B9C3E9000070473C
:10BF400010605860704700BF00310020014B18603E
:10BF5000704700BFFC30002030B585B00023054697
:10BF6000CDE9023301904FF0FF330C484FF0FF3220
:10BF70001CF012FF0A4B1C6834B1636820461B6832
:10BF800001A998472468F7E7284600F0C7F8044657
:10BF900002481CF077FF204605B030BD7417002022
:10BFA000003100201FB5CDE9010103924FF0FF33AE
:10BFB0000A484FF0FF321CF0EFFE094B1C6834B109
:10BFC000636820461B6801A998472468F7E703487F
:10BFD0001CF058FF204604B010BD00BF74170020AD
:10BFE00000310020024B0022C3E90022704700BF4D
:10BFF00000310020024B0022C3E90022FFF7F2BF0C
:10C0000008310020F8B51B4C1B4D06460F46AC42CC
:10C0100012D31A4D1A484FF0FF324FF0FF331CF085
:10C02000BBFE2C687CB1306854F8181C183CFBF738
:10C0300081F8C8B1A469F5E721683068FBF77AF8A0
:10C04000A8B11834E3E777606A68B46106F11803B1
:10C050003AB9C5E90033002409481CF013FF204613
:10C06000F8BD13606B60F6E76FF01004F4E76FF053
:10C070001004F4E74C4B0500F44B05000831002098
:10C08000741700202DE9F74307460D4609B1002338
:10C090000B601F4CDFF8809000264C450FD31D4BE2
:10C0A0001C6884B354F8188C01AA41463846183CE1
:10C0B00021F0DAFA10B3D6B915BB26461EE0D4F843
:10C0C000008001AA4146384621F0CEFA50B116B997
:10C0D00055B9264606E031680022404621F0C4FAF0
:10C0E0000028F5D11834D8E7019B2B60F1E73168BF
:10C0F0000022404621F0B8FA0028DDD1A469D0E73B
:10C10000019B2B60D9E7304603B0BDE8F08300BF48
:10C110004C4B050008310020F44B05002DE9F04799
:10C12000DFF8AC90DFF8ACA080464FF00047002667
:10C13000264C3D464C450DD3DAF80040002C40D04B
:10C14000183CB8F1000F24D1226952BBA469F5E76D
:10C150002F46EDE7B8F1000F03D122694AB9183430
:10C16000E8E720680022414621F07EFA0028F4D159
:10C17000F5E76368BB4206DDAF4202D0AB42A8BF21
:10C180002B461D46EBE7EAD19047002E08BF064636
:10C19000E5E720680022414621F066FA0028D3D165
:10C1A000D4E76368BB4206DDAF4202D0AB42A8BF12
:10C1B0002B461D46CAE7C9D19047002E08BF064648
:10C1C000C4E7AF42C4D13046BDE8F0874C4B050010
:10C1D000F44B05000831002038B50C4D0C484FF0E9
:10C1E000FF334FF0FF321CF0D7FD2B7863B9FFF718
:10C1F00001FF00F069F8044608B901232B700448D8
:10C200001CF040FE204638BD0024F8E7575D0020B2
:10C21000741700202DE9F043048F99B00746884633
:10C22000013400F10806651EADB2B5F5004F47D0E8
:10C230004A2305AA2946304621F010F804F57F5418
:10C240003F34A4B28146214601230DF10B02304652
:10C2500021F004F8B9F1000F014610DC002810DCD1
:10C260003B8FAB4209D13A466B1E22F8383F4FF460
:10C2700000410223304620F0CEFE2C46D3E70028B2
:10C2800008DC2946304620F090FF2146304620F059
:10C290008CFFE5E709F160030DEB0309002309F8C2
:10C2A0004C3C084ACDF8008003AB05A80396ADF8D6
:10C2B000104021F00EFA0028DFD019B0BDE8F0835D
:10C2C0000020FAE737D704007FB501236946022032
:10C2D0000193FEF787FC044660BB02AA01A9022075
:10C2E00021F067F8044610B110F10C0F22D1039928
:10C2F000B1F5803F21D2009A002394681846084483
:10C30000844202D30133082BF9D10D4DA982EB826F
:10C310005368AB602846D368EB6321F0AEFA04465D
:10C3200040B9084E6E602846FFF702FE28466E6050
:10C33000FFF70CFE204604B070BD6FF02004F9E753
:10C34000103100200C11002030BFFFF7FDBF00BFEF
:10C35000054B9A699B689A421FBF044A536843F091
:10C3600080535360704700BF845C002000ED00E004
:10C3700038B5264B15469A6A12F0100F9A6A14BF08
:10C380001124102412F0080F9A6A18BF1224920781
:10C390000AD55A6B9C6A240635D519B1996A21F0E1
:10C3A00080019962132401E06FF01502174B996A1E
:10C3B00011F0010F996A18BF142411F0200F996A27
:10C3C00018BF1524C90602D49B6A9B070BD50F4BD7
:10C3D0005B68190507D50146104600F075FA10B1E3
:10C3E00080F309880224094B9A6A920642BF596A6F
:10C3F00021F400515962996A41F0FF0199620023CA
:10C400002B70204638BD6FF01502CBE700ED00E041
:10C41000134B9A6A12F0007F9A6A14BF1E201D20E7
:10C4200012F0807F9A6A18BF1F2012F4002F9A6AB8
:10C4300018BF212012F4802F9A6A18BF222012F40C
:10C44000003F9A6A18BF232012F4803F9A6A6FEA6D
:10C4500002426FEA12429A6218BF2420704700BF5E
:10C4600000ED00E010B5194A936A946A13F4805FF6
:10C4700014BF1723162314F4006F946A18BF1823EF
:10C48000A40509D5936B936A1C0404D518B1936A6B
:10C4900023F40043936219230C4A906A10F4806FCE
:10C4A000906A18BF1A23C0050DD4926A12F4005F77
:10C4B00018BF1C230548826A42F47F428262002230
:10C4C0000A70184610BD1B23F4E700BF00ED00E022
:10C4D00070B5454B5B689CB0C3F30803002484F33C
:10C4E0001188BFF36F8F02F07F45B5F17F4F13D1F5
:10C4F00015070ED512F004050FD00E462546002272
:10C50000033B8DF80720032B09D8DFE803F02261F5
:10C51000655E06460125F2E725462E46EFE7002434
:10C520009DF807309BB96822314602A827F05BFBD3
:10C53000099B002D54D0C3F3080222B96FEA53239C
:10C540006FEA4323099302A9204621F0CAF91CB0DF
:10C5500070BD254BDA6A9107E1D4DA6A002ADEDB86
:10C56000DA6A5200DBD55A69B16942F480725A61C5
:10C57000BFF34F8FBFF36F8F5A6931F8021C22F45B
:10C5800080725A61BFF34F8FBFF36F8F4DF6027207
:10C59000914201D13468C3E79A6AD2B23AB10DF13F
:10C5A000070201213046FFF7E3FE0446B8E79A6A26
:10C5B00012F47F4F05D00DF107010120FFF752FF64
:10C5C000F3E79B6AB3F5803FA9D3FFF721FFECE7C0
:10C5D0000DF107020021E5E70DF107010020EDE76D
:10C5E0006FF30803AEE700BF00ED00E0044B5A69AB
:10C5F00042F010025A615A6922F008025A617047EB
:10C6000000ED00E0EFF30880EFF3098101B5724619
:10C61000FFF75EFF01BD00BF18F008FF202080F388
:10C62000118808484FF40861401880F30988EFF337
:10C6300014800221084380F31488BFF36F8F00F049
:10C64000CBF8000000920020BFF34F8F0549064B46
:10C65000CA6802F4E0621343CB60BFF34F8F00BFA0
:10C66000FDE700BF00ED00E00400FA05084B9B6801
:10C6700083420BD1EFF3058343B1064B5A6842F076
:10C6800080525A605A6A22F400425A621DF062BA1D
:10C69000845C002000ED00E021498A6882F8C1E056
:10C6A0004FF030001044EFF3098C80E8F01F1EF0CB
:10C6B000100F03D102F1800080EC108A202080F35B
:10C6C0001288BFF36F8F174F4FF000668A698A6038
:10C6D0003E6092F9C1E0906F0023936780F3118868
:10C6E0001EF0100F03D00023E1EE103A03E002F138
:10C6F000800090EC108AEFF3148323F0040383F39B
:10C700001488BFF36F8F04B5104600F061F9BDE8DF
:10C71000044002F1300090E8F01F8CF30988704764
:10C72000845C002004ED00E01EF0040F0CBFEFF36A
:10C730000880EFF30980816911F8021C0229FFD0FB
:10C7400001B5724621F0D3F801BD00BF40B2002808
:10C7500007DB044A4109012300F01F00834042F82F
:10C760002130704700E100E040B200280CDB4309B3
:10C77000064900F01F0020330122824041F82320A7
:10C78000BFF34F8FBFF36F8F704700BF00E100E032
:10C79000054B420900F01F0053F82220012303FA41
:10C7A00000F01040704700BF00E100E040B20028F8
:10C7B000ACBF00F16040074B01F10101ACBF00F5D7
:10C7C000614000F00F004FEA4111B4BF195480F8E6
:10C7D0000013704714ED00E0144A08B5144B22F022
:10C7E0007F029A60BFF34F8FBFF36F8FD3F888201B
:10C7F00022F47002C3F88820D3F8882042F4A00203
:10C80000C3F888204FF04042C3F83422BFF34F8F63
:10C81000BFF36F8F0023E1EE103A1CF001F91DF019
:10C82000D1FA21F096F81CF03DF900BF007002002B
:10C8300000ED00E042F8203C009B42F81C3C019BCC
:10C8400042F8183C0A49029B42F8143C4FF08073AE
:10C8500042F8043C21F00101002342F8081C203A70
:10C8600083674FF47D430265C0F8C030704700BF56
:10C87000DDC30400037B13F0020F124B03D190F8C9
:10C88000C120D20611D45A6B42F080425A63D0F8CC
:10C89000C03019075CBF43F00803C0F8C030037B09
:10C8A00043F002030373802070475A6B22F08042EA
:10C8B0005A63D0F8C0301A0744BF23F00803C0F809
:10C8C000C030F0E700EF00E0094B0246986870B115
:10C8D00012F1160F806E05D0A0F18003934205D8A7
:10C8E000824203D2814228BF002070470020704757
:10C8F000845C0020104B9B6883421AD1EFF30580C3
:10C90000B8B9EFF31181202282F31288BFF36F8F41
:10C910001A7B22F002021A73EFF3148323F004034C
:10C9200083F31488BFF36F8F81F31188BFF36F8F88
:10C9300070476FF015007047845C002008B50E4604
:10C9400015460023E1EE103AEFF3148323F00403BD
:10C9500083F31488BFF36F8FBFF36F8F074B98601B
:10C9600000F036F82C4686F309880020044B9847DF
:10C970002046002100220023024C2047845C002036
:10C980000DD90400DDC30400014B10221A61704769
:10C9900000ED00E008B5EFF30583064A103B02EB1B
:10C9A000C30152F8330049688847BDE80840FFF7E3
:10C9B000CFBC00BFC4470500024B034A0348012116
:10C9C00000F07AB800000420000000208C5305001D
:10C9D00010B50446FFF74EFFA26E064B121AC3E9CC
:10C9E0000020054A9A60BDE810400121184600F079
:10C9F0006DB800BF5031002000000B15084AC2F886
:10CA000098000B6823F01F03034343F01003C2F8A0
:10CA10009C308B6843F00103C2F8A030704700BF20
:10CA200000ED00E02DE9FF41174E0D461F4604467C
:10CA30004FF00008A84523DA6068D8B13FB1411E25
:10CA400008421BD17F2819D92368194216D12368BF
:10CA5000019320F08AFFA36803430393D6F8903034
:10CA6000C3F30723D0B2013B984207D801A9FFF7CF
:10CA7000C5FF421C08F101080C34DBE76FF015021A
:10CA8000104604B0BDE8F08100ED00E0044B052243
:10CA9000C3F89420BFF34F8FBFF36F8F704700BF71
:10CAA00000ED00E0BFF35F8F024B0022C3F894203B
:10CAB000704700BF00ED00E010B5034C0123227861
:10CAC000FFF7B0FF207010BD585D002008B50B4A7D
:10CAD00000231278FFF7A6FF10F1160F07D0084ABF
