:020000022000DC
:1070000000F2002081880300FD2106006D88030046
:107010006D8803006D8803006D8803000000000088
:107020000000000000000000000000009189030043
:107030006D88030000000000018903006D880300D3
:10704000FD8B0300D1150500FD8B0300FD8B0300B4
:10705000FD8B0300FD8B0300FD8B0300FD8B030004
:10706000FD8B0300FD8B0300FD8B0300FD8B0300F4
:10707000FD8B0300FD8B0300FD8B0300FD8B0300E4
:10708000FD8B0300FD8B0300FD8B0300FD8B0300D4
:10709000FD8B0300FD8B0300FD8B0300FD8B0300C4
:1070A000FD8B0300FD8B0300FD8B0300FD8B0300B4
:1070B000FD8B0300FD8B0300FD8B0300FD8B0300A4
:1070C000FD8B0300FD8B0300FD8B0300FD8B030094
:1070D000FD8B0300FD8B0300FD8B0300FD8B030084
:1070E000FD8B0300FD8B0300FD8B0300FD8B030074
:1070F000FD8B0300FD8B0300FD8B0300FD8B030064
:1071000081F0004102E000BF83F0004330B54FEA58
:1071100041044FEA430594EA050F08BF90EA020FC5
:107120001FBF54EA000C55EA020C7FEA645C7FEA58
:10713000655C00F0E2804FEA5454D4EB5555B8BF7B
:107140006D420CDD2C4480EA020281EA030382EAEC
:10715000000083EA010180EA020281EA0303362D7E
:1071600088BF30BD11F0004F4FEA01314FF4801C51
:107170004CEA113102D0404261EB410113F0004F63
:107180004FEA03334CEA133302D0524263EB43031A
:1071900094EA050F00F0A780A4F10104D5F1200EB8
:1071A0000DDB02FA0EFC22FA05F2801841F1000113
:1071B00003FA0EF2801843FA05F359410EE0A5F1E7
:1071C00020050EF1200E012A03FA0EFC28BF4CF018
:1071D000020C43FA05F3C01851EBE37101F00045CE
:1071E00007D54FF0000EDCF1000C7EEB00006EEBDB
:1071F0000101B1F5801F1BD3B1F5001F0CD3490865
:107200005FEA30004FEA3C0C04F101044FEA4452BB
:1072100012F5800F80F09A80BCF1004F08BF5FEA42
:10722000500C50F1000041EB045141EA050130BD22
:107230005FEA4C0C404141EB0101013C28BFB1F534
:10724000801FE9D291F0000F04BF01460020B1FA7F
:1072500081F308BF2033A3F10B03B3F120020CDA52
:107260000C3208DD02F1140CC2F10C0201FA0CF030
:1072700021FA02F10CE002F11402D8BFC2F1200C95
:1072800001FA02F120FA0CFCDCBF41EA0C0190404B
:10729000E41AA2BF01EB0451294330BD6FEA040494
:1072A0001F3C1CDA0C340EDC04F11404C4F120027F
:1072B00020FA04F001FA02F340EA030021FA04F391
:1072C00045EA030130BDC4F10C04C4F1200220FAE8
:1072D00002F001FA04F340EA0300294630BD21FA26
:1072E00004F0294630BD94F0000F83F4801306BFEC
:1072F00081F480110134013D4EE77FEA645C18BFE0
:107300007FEA655C29D094EA050F08BF90EA020F76
:1073100005D054EA000C04BF1946104630BD91EA6E
:10732000030F1EBF0021002030BD5FEA545C05D171
:107330004000494128BF41F0004130BD14F58004B0
:107340003CBF01F5801130BD01F0004545F0FE4124
:1073500041F470014FF0000030BD7FEA645C1ABF59
:10736000194610467FEA655C1CBF0B46024650EA90
:10737000013406BF52EA033591EA030F41F40021BC
:1073800030BD00BF90F0000F04BF0021704730B542
:107390004FF4806404F132044FF000054FF0000117
:1073A00050E700BF90F0000F04BF0021704730B5D8
:1073B0004FF4806404F1320410F0004548BF4042AD
:1073C0004FF000013EE700BF42004FEAE2014FEA02
:1073D00031014FEA02701FBF12F07F4393F07F4FDD
:1073E00081F06051704732F07F4208BF704793F0E0
:1073F0007F4F04BF41F40021704730B54FF46074F3
:1074000001F0004521F000411CE700BF50EA0102F5
:1074100008BF704730B54FF000050AE050EA01029E
:1074200008BF704730B511F0004502D5404261EB0E
:1074300041014FF4806404F132045FEA915C3FF44F
:10744000D8AE4FF003025FEADC0C18BF03325FEAEC
:10745000DC0C18BF033202EBDC02C2F1200300FA9D
:1074600003FC20FA02F001FA03FE40EA0E0021FAC2
:1074700002F11444BDE600BF70B54FF0FF0C4CF4B0
:10748000E06C1CEA11541DBF1CEA135594EA0C0F62
:1074900095EA0C0F00F0DEF82C4481EA030621EA9D
:1074A0004C5123EA4C5350EA013518BF52EA0335D8
:1074B00041F4801143F4801338D0A0FB02CE4FF08A
:1074C0000005E1FB02E506F00042E0FB03E54FF0BA
:1074D0000006E1FB03569CF0000F18BF4EF0010EB2
:1074E000A4F1FF04B6F5007F64F5407404D25FEAAE
:1074F0004E0E6D4146EB060642EAC62141EA555161
:107500004FEAC52040EA5E504FEACE2EB4F1FD0CA2
:1075100088BFBCF5E06F1ED8BEF1004F08BF5FEA20
:10752000500E50F1000041EB045170BD06F00046D2
:1075300046EA010140EA020081EA0301B4EB5C047F
:10754000C2BFD4EB0C0541EA045170BD41F4801177
:107550004FF0000E013C00F3AB8014F1360FDEBF9C
:10756000002001F0004170BDC4F10004203C35DA78
:107570000C341BDC04F11404C4F1200500FA05F3FB
:1075800020FA04F001FA05F240EA020001F000429C
:1075900021F0004110EBD37021FA04F642EB060112
:1075A0005EEA430E08BF20EAD37070BDC4F10C043C
:1075B000C4F1200500FA04F320FA05F001FA04F200
:1075C00040EA020001F0004110EBD37041F10001EC
:1075D0005EEA430E08BF20EAD37070BDC4F12005F7
:1075E00000FA05F24EEA020E20FA04F301FA05F25F
:1075F00043EA020321FA04F001F0004121FA04F207
:1076000020EA020000EBD3705EEA430E08BF20EAD6
:10761000D37070BD94F0000F0FD101F00046400010
:1076200041EB010111F4801F08BF013CF7D041EA92
:10763000060195F0000F18BF704703F00046520096
:1076400043EB030313F4801F08BF013DF7D043EA67
:107650000603704794EA0C0F0CEA135518BF95EA1D
:107660000C0F0CD050EA410618BF52EA4306D1D1A4
:1076700081EA030101F000414FF0000070BD50EAC3
:10768000410606BF1046194652EA430619D094EA4D
:107690000C0F02D150EA013613D195EA0C0F05D137
:1076A00052EA03361CBF104619460AD181EA03018B
:1076B00001F0004141F0FE4141F470014FF0000043
:1076C00070BD41F0FE4141F4780170BD70B54FF0DE
:1076D000FF0C4CF4E06C1CEA11541DBF1CEA13555E
:1076E00094EA0C0F95EA0C0F00F0A7F8A4EB050440
:1076F00081EA030E52EA03354FEA013100F0888037
:107700004FEA03334FF0805545EA131343EA1263FF
:107710004FEA022245EA111545EA10654FEA0026B4
:107720000EF000419D4208BF964244F1FD0404F56D
:10773000407402D25B084FEA3202B61A65EB0305C9
:107740005B084FEA32024FF480104FF4002CB6EB86
:10775000020E75EB030E22BFB61A754640EA0C0006
:107760005B084FEA3202B6EB020E75EB030E22BF46
:10777000B61A754640EA5C005B084FEA3202B6EB87
:10778000020E75EB030E22BFB61A754640EA9C0046
:107790005B084FEA3202B6EB020E75EB030E22BF16
:1077A000B61A754640EADC0055EA060E18D04FEAD4
:1077B000051545EA16754FEA06164FEAC30343EA74
:1077C00052734FEAC2025FEA1C1CC0D111F4801F41
:1077D0000BD141EA00014FF000004FF0004CB6E73A
:1077E00011F4801F04BF01430020B4F1FD0C88BFD9
:1077F000BCF5E06F3FF6AFAEB5EB030C04BFB6EBE4
:10780000020C5FEA500C50F1000041EB045170BDD6
:107810000EF0004E4EEA113114EB5C04C2BFD4EB03
:107820000C0541EA045170BD41F480114FF0000E87
:10783000013C90E645EA060E8DE60CEA135594EA03
:107840000C0F08BF95EA0C0F3FF43BAF94EA0C0F06
:107850000AD150EA01347FF434AF95EA0C0F7FF47B
:1078600025AF104619462CE795EA0C0F06D152EACF
:1078700003353FF4FDAE1046194622E750EA4106B3
:1078800018BF52EA43067FF4C5AE50EA41047FF4C4
:107890000DAF52EA43057FF4EBAE12E74FF0FF3C29
:1078A00006E000BF4FF0010C02E000BF4FF0010CFA
:1078B0004DF804CD4FEA410C7FEA6C5C4FEA430C73
:1078C00018BF7FEA6C5C1BD001B050EA410C0CBFC2
:1078D00052EA430C91EA030F02BF90EA020F002024
:1078E000704710F1000F91EA030F58BF994208BF8B
:1078F00090422CBFD8176FEAE37040F00100704748
:107900004FEA410C7FEA6C5C02D150EA013C07D19E
:107910004FEA430C7FEA6C5CD6D152EA033CD3D0E9
:107920005DF8040B704700BF8446104662468C46E3
:107930001946634600E000BF01B5FFF7B7FF002816
:1079400048BF10F1000F01BD4DF808EDFFF7F4FF3F
:107950000CBF012000205DF808FB00BF4DF808EDCA
:10796000FFF7EAFF34BF012000205DF808FB00BFED
:107970004DF808EDFFF7E0FF94BF012000205DF80F
:1079800008FB00BF4DF808EDFFF7CEFF94BF0120C4
:1079900000205DF808FB00BF4DF808EDFFF7C4FFBD
:1079A00034BF012000205DF808FB00BF4FEA410210
:1079B000B2F1E04324BFB3F5001CDCF1FE5C0DD94D
:1079C00001F0004C4FEAC0024CEA5070B2F1004F97
:1079D00040EB830008BF20F00100704711F0804F9A
:1079E00021D113F13872BCBF01F00040704741F45F
:1079F00080114FEA5252C2F11802C2F1200C10FA63
:107A00000CF320FA02F018BF40F001004FEAC12346
:107A10004FEAD32303FA0CFC40EA0C0023FA02F3EA
:107A20004FEA4303CCE77FEA625307D150EA0133C0
:107A30001EBF4FF0FE4040F44000704701F0004090
:107A400040F0FE4040F40000704700BF53B94AB90F
:107A5000002908BF00281CBF4FF0FF314FF0FF3056
:107A600000F00CB8ADF1080C6DE904CE37F060FF02
:107A7000DDF804E0DDE9022304B07047704700BF81
:107A800010F8012B11F8013B012A28BF9A42F7D0C8
:107A9000D01A7047034611F8012B03F8012B002A76
:107AA000F9D17047034613F8012B002AFBD1181AAD
:107AB0000138704700000000F0B583B000AF3A1DF8
:107AC000002140F6034013F0FBF80446002874D16F
:107AD0007C68E3681B789BB914F09EFDBB4BBFF339
:107AE0005B8F1A68BFF35B8F02F00902BFF35B8FF5
:107AF00053E8001F43E800200028F9D1BFF35B8F53
:107B0000204611F02FFB3A1D002141F2030013F033
:107B1000D7F80446002850D17A68AD4DD168D1F825
:107B20000100D1F8051005F1780303C3104611F0E8
:107B300019FB21463A1D41F2010013F0C1F8044639
:107B400000283AD17868C3685A7885F870205A8836
:107B5000A5F872201A7985F87120B3F80720A5F8E6
:107B60007420B3F80530A5F8763011F0FBFA214601
:107B70003A1D41F2020013F0A3F80446E8B9D7F821
:107B800004C0DCF80C2005F18006531C4132186853
:107B90005968344603C4083393422646F7D16046F9
:107BA00011F0E0FA95F87C305A060AD4894A8A48DE
:107BB00001213AF0CAFD6FF0120420460C37BD4691
:107BC000F0BD3A1D002142F2030013F079F804469B
:107BD0000028F2D17B68814EDA68D2F80100D2F831
:107BE000051003C6184611F0BDFA21463A1D42F2AF
:107BF000020013F065F804460028DED17C68E368D3
:107C0000B3F8012091B249B1D97839B1A5F804216E
:107C1000DA78114606F128003FF09BFC204611F06F
:107C2000A1FA95F87C401F2314F02004A5F8203118
:107C300018D1022140F66D4012F01AFC06460028C9
:107C400000F0C18002210C303AF0BDFB01234470EA
:107C500003702246314640F66D4013F031F8044679
:107C60000028AAD195F89C301B0712D53A1D002197
:107C700042F21C0013F024F8044600289DD17868D5
:107C8000C368D3F80120D3F80530C5E9382311F0D3
:107C900069FA95F8D8309E0621D5B91C384613F0FC
:107CA0000BF90446002888D1042142F2240012F086
:107CB000DFFB0646002800F0868004210C303AF0F5
:107CC00082FB3B8803807B8843802246314642F218
:107CD000240012F0F5FF044600287FF46EAF95F8FB
:107CE000D8305C0610D53A1D002142F22A0012F06D
:107CF000E7FF044600287FF460AF7868C3685B78CC
:107D000085F8223111F02EFA082142F2010012F01A
:107D1000AFFB0446002856D008210C303AF053FB44
:107D200095F8D81011F0400F40F20223024608BF28
:107D3000032388074CBF43F02C0343F00C038E064B
:107D400095F8D96006F0090648BF43F040030EB12C
:107D500043F4006301F0010143EA011000213AF00D
:107D600022FD2146002242F2010012F0A9FF044642
:107D700000287FF422AF95F87C30B5F804119806FE
:107D800030D4C9B93A1D41F2050012F099FF0446FA
:107D900000287FF412AFB5F804317C684BB9E36872
:107DA000B3F80120A5F804219A880D4811463FF048
:107DB000D0FB204611F0D6F9082140F6014012F020
:107DC00057FB0446C0B96FF06804F6E66C0D00205E
:107DD000980C00203D2D0700B48F0600700D002088
:107DE000A00D00200029E7D16F4A704801213AF028
:107DF000ACFC6FF00404E0E608210C303AF0E3FA42
:107E000095F8D830D907024653BF4FF0005164A10E
:107E1000D1E9000166483AF0C6FC2146002240F64E
:107E2000014012F04DFF044600287FF4C6AE014623
:107E30003A1D4FF6014012F043FFD0B15D4A5B4856
:107E400002213AF082FC3AF0B3FE044600287FF4A7
:107E5000B4AE16F02BF9044600287FF4AEAEEB79F1
:107E6000002B40F09480544A504803213AF06DFCB6
:107E7000A3E67B68DC68B4F80130032B96BF4F4A59
:107E80004F4A52F823206E468AB04E490793CDE9F7
:107E900005124FF400736A46ADF820304A4B42F8A1
:107EA000103F42484FF413513AF06EFCB4F80120F1
:107EB000B4F80330022AB54649D1052B47D8434AC6
:107EC00052F823206E468AB041490793CDE9051246
:107ED0004FF400736A46ADF820303B4B42F8103F38
:107EE00032484FF413513AF04FFC6379B4F807006D
:107EF000D4F80910032B96BF364A314A52F8232092
:107F0000B546A6796C468CB0DFF8DCC0CDE9073603
:107F1000CDE905C24FF400736A46ADF82C302E4B04
:107F2000CDE9090142F8103F4FF473511F483AF070
:107F30002BFCA546786811F015F93A1D00214FF683
:107F4000024012F0BDFE044618B1244A77E71C4AED
:107F5000B8E77868C368B3F80130A5F8C13011F00C
:107F600001F995F8C1305B077FF56DAF3A1D2146E9
:107F70004FF6034012F0A4FE08B1194A5FE7786893
:107F8000C3685B7885F8C03011F0ECF85BE7082136
:107F900014483AF0DCFB12F045FC0EE6AFF300802B
:107FA0009088000200800020612D0700B48F060039
:107FB00010880002842D0700582E070058AD0600D7
:107FC000FF2A0700A82D07000400000140AD0600AD
:107FD000C12D070030AD060007000001062E070086
:107FE0002F2E07006C0D0020D92D07000000000087
:107FF0002DE9F8438846D0E9071685698C192F3496
:10800000A54291461AD81E4E1BA3D3E90023A1FB1B
:108010000601FFF71BFD0346601BA0FB060123F0D2
:108020007F4415A3D3E90023FFF710FD20F07F4024
:10803000C8F80040C9F80000BDE8F883104F0EA34F
:10804000D3E90023A5FB0701FFF700FD20F07F44E3
:108050000C480A2108A3D3E90023E6FB0701FFF738
:10806000F5FC20F07F40C8F80040C9F80000BDE8EA
:10807000F88300BFAFF300808D49FD1A07000000B0
:1080800000CA9A3B00166BF1F0B5036989B005464A
:108090000F461E4626483FF008FA4FF0FF320021F7
:1080A00024483FF056FA23481EF092FA044688BB53
:1080B000376000F071FD9FED1C7B6FF00903CDE987
:1080C00003348DED067BCDE901441B4B1B49009524
:1080D0004FF400721A4835F0BBFC1A4918483FF0BB
:1080E00069FB9FED117B6FF00702CDE903248DED55
:1080F000067BCDE90144144B144900954FF460729E
:10810000134835F0A5FC134911483FF053FB2046B6
:1081100009B0F0BD104A11482346012139F037FC5F
:10812000204609B0F0BD00BF0000000000000000C4
:10813000807D0020987D0020ED74040080D4002014
:10814000204A00205CB40600CD73040080D00020DB
:108150005849002068B406003CB406007C8F060035
:10816000F0B5038A91B00022022B0B9240F22381DA
:1081700004460E460C3003213AF056F9228A8378E1
:108180009A42C0F021810088D74DC0F38523082B87
:108190001FFA80FC2880C0F309000DD8CBB1013B49
:1081A000072B16D8DFE813F0FA001500D800BE0040
:1081B0001500150015001C003F2B0AD121460BAA03
:1081C0001FF000FB163018BF0B9C40F0E480B5F8A0
:1081D00000C00121604611B0BDE8F0403AF0C7BBD5
:1081E00001384D28F3D801A353F820F091870200FD
:1081F0001B880200CF870200CF810200C5870200E2
:10820000A1870200F7880200EB880200DF880200E5
:10821000D5880200BD8802007D88020045880200E2
:108220003D880200B58A0200998A0200918A020004
:10823000898A0200658A02005D8A02002F8A020094
:108240001F8A0200DF890200BF890200A78902009D
:108250009D8902006F8902004F890200CF810200D0
:10826000CF810200CF8102002D8902001189020016
:108270006F8602003B8602002F860200CF8102003B
:10828000CF810200218602001986020013860200B7
:10829000F3850200C1850200FD860200F38602001C
:1082A000E58602009B8602002F8702008D85020072
:1082B0003B850200CF810200CF810200CF81020006
:1082C000CF810200CF810200CF810200CF81020066
:1082D000CF810200CF810200CF810200CF81020056
:1082E000CF810200CF810200CF810200CF81020046
:1082F000CF810200CF810200CF810200CF81020036
:10830000CF810200CF810200CF810200CF81020025
:10831000CF81020019850200CF810200CF810200C7
:1083200087870200013808283FF651AF01A353F8B0
:1083300020F000BF678402001B840200F583020066
:10834000CF810200CF810200CF810200CF810200E5
:10835000CF810200D5830200632800F0D18300F2B0
:10836000B983032800F094802D2800F0CC830128E5
:108370007FF42DAFE2685D4B1168526819600146C9
:1083800060465A603AF0E1FA012104460C303AF0B6
:108390001AF800230370204611B0F0BD062800F043
:1083A000A6831D287FF413AFE368188821F0C2FA72
:1083B000014628880FE74E4A4E48012139F0DFFA7E
:1083C0000024204611B0F0BD4B4A4A48012139F043
:1083D000D6FAF5E7604607213AF0B7FA07210446D6
:1083E0000C3039F0F0FF0146002001F8010B1DF0C0
:1083F000B3FDD0E7092160463AF0A7FA0921044607
:108400000C3039F0E0FF0346002203F8012B602115
:10841000C0F801205A604171BDE7604641213AF041
:1084200094FA412104460C3039F0CDFF0021054675
:108430003F2200F8021B3FF0E9FB04232F4AEB72B6
:10844000EB7520232E49C5F81A20C0204FF4906206
:108450006B704FF40A73A871C5F82110A5F8272096
:10846000A5F80F3097E7092160463AF06EFA092126
:1084700004460C3039F0A7FF4FF450610023214A25
:1084800001800D218370C3700171C0F8052082E75F
:108490009FED137B1C4815491C4A1D4B4FF0FF34C0
:1084A00081ED007B046000210020C2E900011F2053
:1084B0000021C3E900011EF017F9288801213AF0D4
:1084C00044FA012104460C3039F07DFF0023114AA3
:1084D000037013601FF0BEF85DE700BFAFF30080CC
:1084E000FFFFFFFFFF1F0000F0A30020280E002069
:1084F000D4B40600748F0600ECB40600F7FFFF0F3B
:1085000030F0F97FF105FFFFB87D0020E84A002038
:10851000200E0020B07D0020604603213AF015FABD
:10852000032104460C3039F04EFF0146002301F8C8
:10853000023B01301DF0DCFC2DE7E26892F802E01E
:10854000D1781088B2F8054013791EF0010F1CBFD6
:1085500041F00301D1701EF0020F00F00A8343F0D6
:108560000303137143EA0102032A40F00E834F070D
:1085700000F00883621E14F0030402F0010208BF39
:10858000224621F08BFA0146288824E6E3681A780F
:10859000D1074ABF07205878587092074ABF072171
:1085A0009978997021F070FA0646012128883AF0EE
:1085B000CCF9012104460C3039F005FF0670EAE6DB
:1085C000E36818680C909A889B798DF8363060467D
:1085D0000721ADF834203AF0B8F9072104460C30F1
:1085E00039F0F1FE0546411C0CA828F073F92870FB
:1085F000D1E6604602213AF0A8F9022104460C3087
:1086000039F0E1FE054627F0FFFF002368702B706C
:10861000C1E627F0FBFFC7E7E06828F041F8C3E7B1
:10862000E06800F11702C11D28F076FCBCE7E368A2
:108630005988188821F0ECF9B6E7604605213AF030
:1086400084F9052104460C3039F0BDFE0CA905461D
:108650000DF12A0021F0D0F9BDF82A20A5F801205B
:10866000BDF83020A5F8032000232B7093E6E368C3
:108670001A8859881646B0B29A8821F089F90746B7
:10868000032128883AF061F9032104460C3039F0BF
:108690009AFE0770A0F801607DE6604609213AF075
:1086A00054F9092104460C3039F08DFE0CAB054617
:1086B0000DF12A020AA90DF1260021F0B3F9BDF847
:1086C0002620A5F80120BDF82820A5F80320BDF834
:1086D0002A20A5F80520BDF83020A5F807200023A2
:1086E0002B7058E6E368188828F07CF92888012167
:1086F00048E6E368187828F05DF955E7E3681868FC
:108700000C909A889B798DF8363060460721ADF839
:1087100034203AF01AF9072104460C3039F053FEA0
:108720000546411C0CA828F013F9287033E6E368CD
:108730001B88604605211F463AF007F905210446CB
:108740000C3039F040FE0546021DE91CB8B221F09C
:1087500075F9EB782A792870002B93FAA3F3B3FA12
:1087600083F308BF4FF0FF330133EB70002A92FA16
:10877000A2F3B3FA83F308BF4FF0FF330133A5F838
:1087800001702B7107E6E068C17928F035F90BE735
:10879000E268C34B11685268196060460121F0E538
:1087A000E46894F80EC0A379627921792088CDF825
:1087B00008C094F80DC0CDF804C00734009420F030
:1087C000B9F9F1E6E16801201DF096FBECE66046A0
:1087D00009213AF0BAF8092104460C3039F0F3FDCA
:1087E0000346002503F8015BC0F801505D60079067
:1087F0001DF068FB079A2B4661F30703C2F80100DE
:10880000C1F3072060F30F23090C61F31743090A32
:1088100061F31F63C2F80530BDE5042160463AF0FC
:1088200094F8042104460C3039F0CDFD00231B21BF
:108830000322037041708370C270ACE5304627F0AC
:10884000DFFAB1E6E468B4F813C06188637922798D
:108850002088CDF810C0B4F811C0CDF80CC0B4F821
:108860000FC0CDF808C094F80CC0CDF804C0063491
:10887000009401F07DFB01462888ACE4E368187899
:10888000002800F073815B78002B00F06F81854A2F
:1088900000231360844A136020F028FC01210C2877
:1088A0000346288814BF1D4600253AF04EF80121E2
:1088B00004460C3039F087FD05706CE5E468637997
:1088C000B4F80320B4F801102078A479009400F0E3
:1088D000EBFB69E6E368187800F092F964E6E1687A
:1088E00011F8010B20F07EFB5EE6E16811F8010B48
:1088F00020F00AFB58E6022160463AF026F80221F1
:1089000004460C3039F05FFD00230370437042E5EC
:10891000E2681188927800230E46CDE90233CDE952
:1089200000330221B0B220F025FFA8E6E1680B88F1
:1089300000221E464B88039208890290C888019045
:1089400089880091B0B2022120F014FF97E6092136
:10895000604639F0FAFF092104460C3039F033FD46
:108960005249534A016000234260037213E5E368F1
:108970001B880022062198B2079327F093F9064638
:108980000321288839F0E1FF032104460C3039F037
:108990001AFD0670079BA0F80130FCE4E268002194
:1089A00032F8023BE7E7E268114602F10C0331F8C6
:1089B000020B0A3227F076FA014628880BE460465B
:1089C000092139F0C2FF092104460C3039F0FBFCC3
:1089D000002300F8013B082129F004F9DBE4E068FA
:1089E00000230CAA00F110012CF0AEF92888112107
:1089F00039F0ABFF112104460C3039F0E4FC844619
:108A000000230CF8013B0CAD86460FCDCEF80100DB
:108A1000CCF80410CCF80820CCF80C30BBE4E368A8
:108A2000188820F057FF01462888FFF7D4BBE36879
:108A30001B880793604608219EB239F086FF082103
:108A400004460C3039F0BFFC0546C11C304620F00E
:108A5000D9FE079B2870A5F801309CE4E06827F058
:108A6000E9FAA1E5E16800224B88088803920C89A5
:108A70000294CC88019489880091114620F07AFEF6
:108A800001462888FFF7A7BBE06827F023FD8BE5A8
:108A9000E06827F067FC87E527F036FC84E500BF37
:108AA000200E0020B47D0020B87D002000FFFF3F95
:108AB000FFFF03006046022139F047FF0221044610
:108AC0000C3039F080FC00230370054627F01AFCB7
:108AD000687060E47B282FD07C287FF478ABE26854
:108AE00013885188079398B221F052F847E7E3685A
:108AF0009978188820F0B0FE01462888FFF76BBBF4
:108B0000E268234B46E6E3681A886046174604216C
:108B10009A78079239F019FF042104460C3039F095
:108B200052FC079A0546C31CB9B202201DF0D0F9C9
:108B3000A5F8017028702EE4E3681B88079398B2AB
:108B40000CA920F0EDFF05210646288839F0FDFE2E
:108B5000052104460C3039F036FC079B0670A0F85E
:108B60000130BDF83030A0F8033014E44FF0FF338B
:108B700090E643EA0102032A07D84E0702D05A07BB
:108B80007FF4F8AC1221FFF725BB1121FFF722BBC0
:108B9000E84A0020000000009FED0D7B124B134AB5
:108BA0001348144983ED007B9FED0B7B82ED007B26
:108BB0009FED0B7B104B4FF0FF3C002281ED007BC3
:108BC000C0F800C01A601EF045BD00BFAFF30080C2
:108BD000FFFFFFFFFF1F000000000000000000007B
:108BE0001F00000000000000280E0020E84A0020BE
:108BF000B87D0020200E0020B07D00200000000085
:108C0000002800F080812DE9F047C54C94F86A20D7
:108C100012F001058EB040F0628194F82500FF2328
:108C200000F0030084F8263027F064FF94F86A000F
:108C3000420700F1588194F8292094F8353004EB6C
:108C4000820204EB8303D56A9B6B984685B1B448D6
:108C5000294620F0AFF82B785B0605D506211BF0DE
:108C60005FFB002800F09681AD48414620F0A2F855
:108C70002B7813F00E0F40F0AF80236A0BB10C205D
:108C80002EE11EF001F80646002800F090811EF04B
:108C900007F88146002800F0878120F0DFFC0346BA
:108CA000002800F08B81D0F894004FF6FF721A86EE
:108CB00003F11C0A002800F07C8103F1880203F113
:108CC00084010B931BF038FB96480B9BD0F80110E6
:108CD000C3F8AB11C3F8B111B3F8821010F801CB8F
:108CE00021F4EF6121F0070141F48C7141F00101A1
:108CF000A3F882108188A3F8AF11A3F8B51193F8F7
:108D0000AA110CF0010C6CF300016CF3410183F823
:108D1000AA1193F8431001F03F0161F07F0183F83D
:108D2000431093F89A1021F0070183F89A1093F8F2
:108D3000481021F00F01002283F848104FF000077F
:108D40004FF4C021C3E91522C3F89420A3F898205A
:108D5000DA86C3F83A20DA65A3F89E21A3F89421B5
:108D6000C3F89811184683F8457023F0DFFA0B9B7F
:108D700083F86071C3F8646120F094FF0B9B93F853
:108D8000A41160F3020183F8A41120F091FF0B9B62
:108D900093F8A4C160F3C50C93F8900183F8A4C1C3
:108DA00020F0020083F890010121184621F0BEFB5B
:108DB0000B9B03F1E00023F055F80B9BC4F820A0B7
:108DC0000022C4E91869C3E905221F70DB6129F09C
:108DD00059FA002840F0E48094F824300121C3F3CC
:108DE00042030DF133008DF833301BF04DFC0028A9
:108DF00000F08B8098F80110024628461FF08AFD8B
:108E00003123A3604FF0000323700023C4E905332E
:108E1000454A6360E360454BB4F868600721E0FBB6
:108E2000023118463CA3D3E90023FEF70FFE206170
:108E30001DF042F800F10907002E40F0A9802A78C1
:108E400002F00F02A2F10102B2FA82F2520994F882
:108E50002400236962F3000010F0010584F8240067
:108E60006ED0334A099200201060324A04930225E2
:108E7000019305923B460DAAB8462F4F089216461D
:108E80000321CDE902000694009007972A460D952C
:108E90001CF0AEFE31461DF0B9FF002835D1274940
:108EA00005914AF2D8330093CDE90300CDE90100E2
:108EB0000797089606944346012203210D951CF05E
:108EC0005FFE31461DF0A2FFF8B994F86A3043F016
:108ED000010384F86A3020F0A3F900285CD0002058
:108EE0000EB0BDE8F0872A4604F16B01C0F3C00064
:108EF00027F09CFFFF2884F826003FF49CAE28460C
:108F000027F03EFE97E61FF049BC236A002B3FF492
:108F1000B6AE1FF0FFFBB2E68D49FD1A0700000058
:108F2000607E00205862070000CA9A3B8C49FD1AF7
:108F3000547E00208589040051600400B18404003F
:108F4000254A2648049303F247130694029591217B
:108F50001360A6FB000301FB0631214B0793214B55
:108F6000059302230D930DAB08931E464FF6FF7336
:108F70000992039316A3D3E90023FEF767FD3B464E
:108F8000CDE900500222284603211CF031FE98E76B
:108F900000225CE71220A3E7012027F08DFD9EE769
:108FA0001FF0B8FB03209BE730461DF073FE07203F
:108FB00096E703F18C00C3F894007EE648461DF066
:108FC00075FE30461DF066FEF1E700BFAFF300808E
:108FD0008D49FD1A07000000547E0020002AE78416
:108FE000516004008589040070B590F824308AB07F
:108FF000C3F342030D46044601210DF1230016463A
:109000008DF823301BF040FB7178024628461FF094
:1090100081FC1F4A1F4B0721E0FB023118461AA3AF
:10902000D3E90023FEF712FD23699842054621D2B9
:109030001B1A00220192184A0293184BA21A02210D
:10904000A3FB023201EB9212002309AE09911449ED
:109050000591CDE9033303210696D2B20093184659
:109060001CF026FE31461DF0D1FE38B925610020E6
:109070000AB070BDFBD9C21A0023DBE70C200AB08E
:1090800070BD00BFAFF300808D49FD1A07000000DE
:1090900000CA9A3B8C49FD1A607E00208988888826
:1090A000516004000000000038B5194C9DF810E034
:1090B00094F848C01CF0010523D163F3420C400131
:1090C00094F83230A1874FEACE0E0EF0180E00F061
:1090D000200040EA0E0023F0380303430D4884F8D3
:1090E00032309121A2FB000384F848C001FB023119
:1090F00005A3D3E90023FEF7A9FCC4E91000284624
:1091000038BD0C25284638BD8D49FD1A07000000E2
:10911000104B0020002AE78410B504469DF808C0D3
:10912000228448014FEACC0CA17D0CF0180C00F011
:10913000200040EA0C0021F0380108430849A075DE
:10914000A3FB0102912101FB032103A3D3E9002327
:10915000FEF77CFC606210BD8D49FD1A070000001F
:10916000002AE784000000002DE9F043044600F1E6
:10917000350190F8480094F832305B4DDFF880916B
:10918000C0F3410060F386138FB000F0010084F853
:1091900032301CF0E1FE94F83220A38F5348E46192
:1091A00002F07902002784F832209121A3FB00020B
:1091B000C4E90577277001FB032149A3D3E9002304
:1091C000FEF744FC3123C4E90173626C484BE7604D
:1091D000651BAD08A3FB053502F10903984298BF52
:1091E0003A46C5F34705984298BF0346226405EB0B
:1091F0004502236149F8223006461CF05DFE236AD1
:1092000000F10907002B4AD00DF13408CDF8208079
:10921000069405EB4503A28F344809EB830304351C
:109220000993EBB20B939121A2FB000301FB0231E6
:10923000304B0793304B0593236904934FF000099B
:1092400027A3D3E9002302250D95CDF80C90FEF756
:10925000FDFB104619464FF47A720023FEF7F6FB29
:109260000321CDE901600B9ACDF800903B464846BA
:109270001CF0BEFC41461DF0C9FD60B994F84830B1
:1092800043F0010384F848301FF06CFD08B3002060
:109290000FB0BDE8F0830C200FB0BDE8F0830DF1F6
:1092A0003408CDE90C33216943460CAA032001F0B0
:1092B00017FA0028AAD10D99104809A3D3E9002371
:1092C000A1FB0001FEF7C2FB0C9B20F07F471F446F
:1092D0009CE7284627F0F0FBD9E700BFAFF30080FA
:1092E0008D49FD1A07000000104B0020002AE7847A
:1092F000BD86F21A51600400F58F040000CA9A3B43
:10930000E07E0020000000002DE9F04F06468BB003
:109310008A4601200221994614462BF091FB002237
:109320000221834601201BF057F83D494FF4DC72BF
:1093300030461AF0DFFF451D3A4B0093EDB201961F
:109340004B462A46012100201CF010FD10F0FD0FB5
:109350000ED0354A3549364840F68F0337F037FB93
:10936000002383F31188BFF36F8F0323184602DFB6
:10937000304BA4FB0348204627A3D3E900234146F2
:10938000FEF764FB2C4B20F07F47A7FB033107223D
:10939000E01A02FB071168EB01014FF47A72002317
:1093A000FEF754FB96F943203369244C0896002AB3
:1093B000B4BF234A234A0696CDE904324FF6FE7322
:1093C000CDE901700393CDF800A04B462A46012158
:1093D000002007941CF0D4FB10F0FD0F0ED0124AB1
:1093E0001249134840F6A40337F0F1FA002383F33F
:1093F0001188BFF36F8F0323184602DFBBF1000F04
:1094000002D10BB0BDE8F08F0122022110460BB053
:10941000BDE8F04F1AF0E0BF8D49FD1A07000000CB
:10942000604B002089950400E4B80600A8B9060046
:10943000B8B1060000CA9A3B8D49FD1A299504006F
:109440006DFB040035FD0400F0B58468228E4FF6F4
:10945000FF739A428FB000F082800546204623F0C9
:10946000BBFA2B7D012B00F0FA80022B79D033B9A7
:1094700094F89A3003F01803182B00F0348194F814
:109480006061002E70D1638F94F943201F462B8AB0
:10949000CDE90C66002B6ED0B242C0F23E810023B3
:1094A000A4F89A31AA7C238F02F003023B440133D3
:1094B000012A9DB200F02D81B4F89E21002A00F00F
:1094C000D480AA4240F25081521B92B20021062A57
:1094D000A4F89E21618740F2E28094F943208A42F9
:1094E000C0F24C81002294F8481062F3820184F8A3
:1094F00048100DF12F022946204622F053FF743008
:1095000028D0B4F898212AB1AA4240F2D580521B43
:10951000A4F89821B4F894212AB1AA4240F2DC8040
:10952000521BA4F89421658F16B9AF4200F0C28097
:109530000135ADB294F8DD3013F0010038D1DDE92A
:109540000CC3002B63D1BCF1000F00F0058118465D
:1095500019465DE09DF82F10204620F0C9FC0FB0A1
:10956000F0BD3D2684F86061314620460FB0BDE86D
:10957000F04020F0BDBC9A42B8BF84F88561AA7C57
:10958000238F02F003023B440133012A9DB200F015
:10959000C080B4F89A21002A8ED0AA4240F2E98015
:1095A000521BA4F89A21B4F89E21002A89D19AE787
:1095B00094F9432023F00103002A84F8DD3071DBA5
:1095C00094F88200C0F3C00100F0070028F072FC9C
:1095D000B4F87A20B4F878301344628D03F23F1364
:1095E00013441844884A894B0721E0FB023118468E
:1095F00083A3D3E90023FEF729FA216920F07F42F3
:109600009142DDE90CC380F0A080501A2261002154
:10961000228EE4690694CDE9035605327C4D029111
:10962000CDE900C0D2B20121002005951CF040FB1D
:1096300010F0FD0F93D01DF017FCA0428FD0754A9B
:10964000754976484FF4AE6337F0C1F9002383F3D0
:109650001188BFF36F8F0323184602DF7FE70023D3
:10966000A4F89831A4F8943109E7628E052A8BBFDB
:1096700040F2E2414FF4FA71514302FB0111B4F898
:109680009C2142F2107000FB0212013AB2FBF1F28F
:1096900092B2A4F89E21002A7FF413AF23E701269B
:1096A000324620E794F88300012100F0070028F0FB
:1096B00003FC8DE735463DE71DF03AFB01460028E7
:1096C00068D00022A4F89821228EC2801B22027149
:1096D00000681DF0FDFA1DE70023A4F89431204630
:1096E00022F008FF1FE7A18EB4F896218B1D9A4245
:1096F000C4BF931F5B1AB4F89211CCBF9BB2134640
:1097000099424ED0A4F89231A4F89431A4F898214B
:10971000B5E60022A4F89E21E5E694F88531002BF9
:1097200045D0013B84F8853104F1E00318460993E4
:1097300022F0DAFB099B002856D0184622F0D4FB11
:10974000002843D000236387A9E6891A2261002BF1
:109750003AD151EA0C021BD115B9002E3FF4FFAEED
:1097600000200146034653E70821204620F0C0FBB5
:10977000F5E63E21204620F0BBFBF0E677B9D4F8B1
:109780008821510812F0010233D1C4F88811A9E6EA
:1097900018463DE70122A4F89821BBE60A460126B7
:1097A000A1E6B4F8981100297FF469AEACE70CAAE1
:1097B0000DA92846FEF71CFCDDE90C231343B3D0AA
:1097C000237884F88531AFE7002021E70246D4E909
:1097D00021011AF0C5FD0028B4D194F848301B07C8
:1097E00044BFA38E63875AE6FF2020F041FB099B0C
:1097F000A3E741F000411646C4F888113A4672E6E4
:109800008D49FD1A0700000000CA9A3B8C49FD1AD9
:10981000E5940400E4B80600F4B90600B8B1060007
:109820002DE9F04F87B0CDE90432BDF8442003782C
:109830000192BDF84820BDF84090BDF84C70B0F8DA
:109840003C80039104460292002B00F00C8108F149
:10985000FF38A368D4F81CA1A8EB070292B2002B32
:1098600000920ADAE168626823F0004391422CBF5B
:109870008A449244A360AAEB030A94F88200C0F3DE
:10988000C00100F0070028F015FB658E052D40F2A1
:10989000E280009B15FB03F5ADB240F2E24BB9F15B
:1098A000050F40F2CC80B4F87A20B4F87830134435
:1098B00003F2D5131844784A784B0721E0FB0231B4
:1098C00018464FF09613A3629623A38570A3D3E99D
:1098D0000023FEF7BBF84E4620F07F4040F2E24303
:1098E0000BFB05F103FB06F6B1FBF6F51FFA85FB52
:1098F00020610BFB06F0814280F09380401A66499C
:1099000063A3D3E90023A0FB0101FEF79FF820F039
:109910007F408244E38EB4F8242113441F4494F81A
:109920004330A7EB08073D44DB09E58600F0A18042
:10993000E26C0099636D584F02FB1133636528F0A8
:10994000F1FC054694F88401C0F3420028F0ECFCD9
:10995000054406FB05F5524B05F5742505F23F2538
:10996000A3FB0535AD0C636DE5640BFB05F07208D8
:109970000344963A934228BF1346C4E91423059B37
:1099800040F2E24808FB03F3E3650023C4F88C319E
:10999000A0FB07013EA3D3E90023FEF757F8049B81
:1099A000AAEB000A3F48A0FB0330800A08FB00F046
:1099B000A0FB070136A3D3E90023FEF747F8751B88
:1099C00020F07F47019BA386029BA4F89C3131467F
:1099D0002046A4F8329022F021FDA28E324B901D39
:1099E000F318B3FBF6F39A1A99B2063AA4F8963133
:1099F000884238BF1346A4F89231039B13B1002369
:109A0000A4F89E3153462A4639462046FFF77CFC8F
:109A100094F8903143F0010384F8903107B0BDE829
:109A2000F08F091A1C481AA3D3E90023A1FB0001F7
:109A3000FEF70CF820F07F40AAEB000A6AE74FF02F
:109A4000961309F10106A3629623A385B6B20A20F4
:109A50004FF4FA7344E7009B013515FB03F5ADB2F3
:109A60004FF4FA7B1BE7C38E9844B0F82431984436
:109A7000EFE6049B0848A3FB000105A3D3E90023FC
:109A8000FDF7E4FF20F07F47013735469AE700BF36
:109A90008D49FD1A0700000000CA9A3B8C49FD1A47
:109AA00083DE1B435917B7D17FC3C90100000000F3
:109AB0002DE9F04F04460B68077F1668D3F8009035
:109AC000638CD0F81E0095B015464A7CADF84C303A
:109AD000FF2AC7F380138A460D9212908DF83F300B
:109AE00075D1DDE9120198461A460DF1400B109030
:109AF000ADF84410F80909F1710127680A915B4635
:109B00000C900B9720F0DAF80A99002847D196F8C4
:109B1000AA310C9A0A9068F3410362F3000386F8B5
:109B2000AA311098BBF80430C6F8B101A6F8B531D7
:109B3000D9F87130C6F8AB318B88A6F8AF31E38D18
:109B400094F83010A9722B81D4F82A306B60D4F8C5
:109B50003A30C5F8223005F1220094F83E30037106
:109B600005211AF091FD95F8273000F03F0060F3D1
:109B7000050385F8273094F83F30C3F3040385F8D4
:109B80002830A18EE982012804F11C0889B206D987
:109B90001B3303F01F030B2B01D80A9A59BB002279
:109BA000C9F8142095F82C300B9862F3000385F85F
:109BB0002C30012621462671E4681DF07DF82068CE
:109BC000267121461DF084F815B0BDE8F08F0DF127
:109BD000400B10460DF13F015A4626F0CBFC9DF894
:109BE0003F80277F08F102085FFA88F88DF83F80F0
:109BF00008F001027EE7DAF800305A60E38E2B832A
:109C00001146EA8A40F2E24303FB02F20A92638EB3
:109C10000C93304622F018FC94F83F2096F88411FB
:109C2000520962F3430186F8841128F07BFB074652
:109C300096F88401C0F3420028F076FB0A99BE4AE8
:109C4000074401FB07F707F5742707F23F27A2FB3C
:109C500007274A08BF0C963A2F636A6394F83120AD
:109C600040F2E24302FB03F36B64238FA6F89C31BE
:109C700030460F4622F0D2FBB04BB14AC6F8A021C5
:109C8000FB18B3FBF7F3A6F896312A8B98B2991A12
:109C900006329042A1F10602C8BF1346A6F89231DF
:109CA0006B68C6F88831237F18F0010FC3F34017A3
:109CB00040F0FE804FF48073A38399F8260027F0CC
:109CC00009FA002800F0EF80636AC4F82B30238D76
:109CD000A4F82F300D9BFF2B00F02181BDF84C30F4
:109CE0001298A4F82930C4F82500BBF80430A4F871
:109CF000233010989DF83F30C4F81F00A377EB8AFB
:109D000063862B8BA386B6F89C31E38696F8843164
:109D1000C3F3420384F8383030461FF0ABFCA8820E
:109D2000E08021460B98DAF804401CF0C5FFAA8AAF
:109D3000D4F80080E2801C232371002F40F0CF80F4
:109D40002777214640461CF0C3FF95F86700B5F819
:109D50005C70B5F85E40012100F0070028F0ACF817
:109D6000E31903F2D513774F034480467648072161
:109D7000E3FB07014FF09613C5E9033300243123B9
:109D8000B36074606AA3D3E90023F460FDF75EFE5C
:109D900020F07F4030610A9B2D6B0C995D1BDAF837
:109DA0000C3040F2E24202FB013303F2B34122469F
:109DB000A1EB0808012002211AF00EFB48461EF014
:109DC000B7FF5BA3D3E900238346A8FB0701FDF798
:109DD0003DFECDF80490DAF808305C49009120F09F
:109DE0007F470BF102023A3BD2B23B4401212046AD
:109DF0001BF0BCFF01287ED099F82430DB0766D425
:109E000030461FF037FC4F4CA5FB044948A3D3E96B
:109E1000002300F1050849462046FDF717FEDAF851
:109E200008304B4A0792A3F13A0A4A4B069620F0B3
:109E30007F45A5FB0331E01A474B05934FF4F573BB
:109E40000893336904934FF0070303FB051169EB93
:109E5000010100244FF47A7200230394FDF7F6FD0C
:109E60000097CDE9015053465FFA88F20121204660
:109E70001BF086FE10F0FD0F0DD0384A38493948E6
:109E800040F2EB1336F0A3FD84F31188BFF36F8F1C
:109E90000323184602DF0122022110461AF09CFA21
:109EA00015B0BDE8F08FC4F82B00A4F82F0011E71F
:109EB0002A4A2D492B48FD2336F089FD002383F3E0
:109EC0001188BFF36F8F0323184602DFF2E60023E9
:109ED00001220093184611461BF006FF90E795F803
:109EE000273043F0400385F82730281D26F01CF961
:109EF0000127288524E71CF0B7FF81453FF47CAF9C
:109F0000164A1A49174840F2922336F060FD84F34E
:109F10001188BFF36F8F0323184602DF6CE700231D
:109F2000C4F82530A4F82930DFE600BFAFF3008085
:109F30008D49FD1A0700000083DE1B437FC3C90162
:109F4000404B4C0000CA9A3B8C49FD1A29FB040087
:109F5000F5FA04008D49FD1A6DFB04004CBE0600A5
:109F6000A8B90600B8B10600E8B50600A8BE06000C
:109F70002DE9F04F8DB09A46BDF860300793CDE9DA
:109F80000501BDF868309DF85C80BDF864B00493AD
:109F9000002091461FF050F9002800F0738108F06E
:109FA0000106044630461BF0C9FF0390002E6FD116
:109FB000169B0399524630461FF080FE002840F061
:109FC0007281236A0893002B69D0276A0AF0010383
:109FD0003D68079397F86600C0F3C00100F00700E2
:109FE00027F068FFB7F85E30B7F85C201A44FB89A9
:109FF00000F23F1003441344CB48CC4A0721E3FB53
:10A000000201C7A3D3E90023FDF720FD20F07F4024
:10A010002861484626F090FDFF2384F8343094F8F8
:10A02000333023F0020384F83330B9F1000F00F02D
:10A030002D81A8F10203012B40F2398194F84810D8
:10A04000079D68F3420184F8481094F8331065F3D3
:10A050000001DDE9052384F833101699096861626F
:10A060001699898821850499218604F11C00CDF870
:10A0700000900021FFF750F8606428F003F90028F1
:10A0800040F020812046FFF76FF80DB0BDE8F08F5B
:10A0900006211AF045F900288AD11220F5E71CF0B4
:10A0A000F3FD0990002800F064811FF0D7FA0546FF
:10A0B000002800F05B81203005F11C071AF0F8FA47
:10A0C000002840F03F81032105F1240027F08AFD9C
:10A0D000079BD5F894006B864FF6FF73A5F834B054
:10A0E0002B86002800F03D8105F1880205F18401EE
:10A0F0001AF022F9B5F8822022F4EF6222F007026A
:10A1000042F48C7242F00102A5F8822095F89A2060
:10A11000002322F0070285F89A200121C5F8943027
:10A12000A5F89830284620F001FA0023EB86C5F800
:10A130003A3005F13E0025F0A3FF95F8432060F387
:10A140000502012185F843200DF12F0027F04AFD7B
:10A15000049A9DF82F10A5F89C21754AB5F834C0D3
:10A16000A2FB0102D20802EB42020023A1EB820112
:10A17000A5F89E31A5F894310531079B85F8441068
:10A180006C4A40F2E24101FB03F18A18B2FBF1F2A2
:10A1900090B295F84320A5F8960102F03F02A0F195
:10A1A000060E85F8432095F848200791AEEB0C0E7B
:10A1B0001FFA8EFE0CF1060C22F007026045C8BFA4
:10A1C00070464FF0000B85F848204FF4C022C5F8C8
:10A1D0009821A5F8920185F845B0284622F0A6F806
:10A1E0000799284622F01AF9099BC5F86431002323
:10A1F00085F860311FF056FD95F8A42160F3020246
:10A2000085F8A4211FF054FD95F8A42160F3C50240
:10A2100085F8A42195F8902122F0020285F890217A
:10A2200005F1E00021F01EFE95F8AA210AF00101D7
:10A2300061F3410285F8AA214FF09612C5E90A227E
:10A240003122AA600023169A6B60EB6012680791B6
:10A250001699C5F8B12195F8AA218988A5F8B511F4
:10A2600068F30002039985F8AA210A68C5F8AB21B2
:10A270008A88A5F8AF212762C5E9053385F800B0C3
:10A28000ED61A7E60C200DB0BDE8F08F27F0E2F8F5
:10A2900000283FF4CEAE169950464A4626F0C6FD39
:10A2A00084F83400C5E60B200DB0BDE8F08F002027
:10A2B00026F066FC94F8333043F00203B04684F88D
:10A2C0003330BBE6256AAB6F73B11B4A1B491C4890
:10A2D00040F2294336F07BFB002383F31188BFF360
:10A2E0006F8F0323184602DF05F16C0105F168004A
:10A2F0001AF026F8064600284CD02F68AE67D7F82B
:10A300006451002D37D028461CF0C4FC38461FF09D
:10A31000ABF90023032023620DB0BDE8F08F00BF2E
:10A320008D49FD1A070000008C49FD1A00CA9A3BAE
:10A33000ABAAAAAA7FC3C901D8BE0600C0B706004F
:10A34000B8B106001B4A1C491C48C12336F03FFB2C
:10A35000089B83F31188BFF36F8F0323184602DF36
:10A36000B1E605F18C00C5F89400BDE609981CF033
:10A3700091FC072089E60F4A1149104840F2324308
:10A3800036F025FB85F31188BFF36F8F0323184642
:10A3900002DFB8E7074A0A49084840F22B4336F083
:10A3A00016FB86F31188BFF36F8F0323184602DF75
:10A3B000A3E700BFD8BE060070B20600B8B1060021
:10A3C00034B90600000000002DE9F04F04468FB0BC
:10A3D00090F81C90238D406AADF83430E307C9F340
:10A3E000C01588461646C9F340190C9000F10F813C
:10A3F0000023A38398F8123098F8110013F001039A
:10A400001BBFD4F81E30C4F82B30C4F82B30638C3B
:10A41000A4F82F30FF2800F0EC8004F11F0204F1B3
:10A420001E0126F0A7F8A37F0C98C4F8250002337C
:10A43000A377BDF83430A4F82930D8F800301D686F
:10A44000F38A6386338BA3862B8EE38627F068FF1F
:10A4500084F83800376838461FF00CF90021B082C4
:10A46000E080384621F0F0FF20682146D8F804400B
:10A470001CF022FCB28AD4F800A0E2801C232371D5
:10A48000B9F1000F40F0D38084F81C90214650466B
:10A490001CF01EFCBB68796896F86600F28AD8F852
:10A4A0000C606B4C8B4238BF0B4603F10909C0F3BB
:10A4B000C00140F2E24300F0070003FB02FB27F07B
:10A4C000F9FC00220221361A012019F085FF2846E6
:10A4D0001EF08AFEA6FB04465BA3D3E90023824656
:10A4E00031462046FDF7B2FA0195D8F808305949AF
:10A4F000009120F07F450AF10402A3EB0903D2B2D8
:10A500002B44012100201BF031FC10F0FD0F0ED078
:10A51000514A5249524840F2493336F058FA002322
:10A5200083F31188BFF36F8F0323184602DF4FF0C8
:10A53000000A534603220121CDF800A050461BF02B
:10A54000D3FB38461FF096F8D8F808300B904048F7
:10A55000A3EB0908ABFB00013BA3D3E90023FDF704
:10A5600075FA0B99079701F1050B19463D4B0893B6
:10A570003D4B069340F2793309933B698146CDE91F
:10A5800004A3104600234FF47A72FDF75FFA374BAD
:10A590000722A5FB0331CDE9029002FB0511E01A69
:10A5A00066EB01014FF47A720023FDF74FFA434640
:10A5B000CDE900505FFA8BF2012150461BF0FEFA04
:10A5C00010F0FD0F0DD0244A2449254840F27A337B
:10A5D00036F0FDF98AF31188BFF36F8F0323184615
:10A5E00002DF0122022110460FB0BDE8F04F19F042
:10A5F000F3BEBDF834300C98A4F823300023A577BF
:10A60000C4F81F00C4F82530A4F8293015E7124A11
:10A61000174913484FF4317336F0D9F9002383F307
:10A620001188BFF36F8F0323184602DFE0E696F828
:10A63000273043F0400386F82730301D25F074FDA5
:10A640004FF0010930851FE78D49FD1A0700000012
:10A6500000CA9A3BFDFC0400D8BE0600A8B906005B
:10A66000B8B1060001FD040035FD04008D49FD1A56
:10A67000E8B5060000000000053838B5C3B2052B68
:10A6800023D880B20D461EF0FDFF0446E8B190F9D4
:10A690004330002B19DB90F88200C0F3C00100F0BA
:10A6A000070027F007FC0C4A0C4B00F2B5500721BD
:10A6B000E0FB0231184606A3D3E90023FDF7C6F9F3
:10A6C00020F07F402860204638BD002038BD00BF04
:10A6D0008D49FD1A0700000000CA9A3B8C49FD1AFB
:10A6E0002DE9F04F93B0FF270B930B1D0A93002326
:10A6F000CDE90E33054616468DF837709A463C462E
:10A70000984699469B4610AB0693594B0593594B77
:10A7100003930FAB01930EAB002000930223109321
:10A720000490029033460DF1370229461BF062FB7C
:10A73000022812D0109BB3B9FF2C25D033684345B3
:10A7400022D0002F42D0013FFF24FFB28DF83740C6
:10A75000D9E7294600201BF099FB109B022BF8D06B
:10A76000109B002BE8D0444A444945484FF4EE730F
:10A7700036F02DF9002383F31188BFF36F8F032385
:10A78000184602DFFF2CD9D19DF83700FF282CD0C6
:10A7900011A9FFF771FF0028B5D0FF2CDDF8388034
:10A7A000119B0AD05946404609931BF087FB0A9B30
:10A7B00003EB09029042099B19D8C3469DF8374024
:10A7C000D6F80080DDF83CA099469CE72D492A4A3E
:10A7D0002B484FF4F27336F0FAF887F31188BFF381
:10A7E0006F8F0323184602DFADE7FF2C34D02648D5
:10A7F0000721A9FB000301FB09311BA3D3E90023B7
:10A80000FDF724F9044600B13E34204AAAF574232A
:10A81000A3F51073934216D81B480721ABFB000326
:10A8200001FB0B3110A3D3E90023FDF70FF9184BFF
:10A83000A3FB0A2304EB93440B9B044400201C60FD
:10A8400013B0BDE8F08F0AF1E87A0AF5D43A0BF1BB
:10A85000FF3B0AF5A57ADFE76FF0090013B0BDE80A
:10A86000F08F00BFAFF3008000CA9A3B00000000E9
:10A87000250005002900050024BF060068BF06006A
:10A88000B8B1060070BF06008D49FD1ABFBDF07F4C
:10A8900083DE1B43000000002DE9F043C5684668D5
:10A8A0006B683B491A680768A6F57423A3F5107313
:10A8B0008B4283B0804606D906F1E87606F5D43699
:10A8C000013F06F5A5766B681169DB8A0197994609
:10A8D00001AA05F110030220FFF702FF00284CD166
:10A8E0000199CB1B1B0236D4084639461BF0E6FA09
:10A8F000284B0721A0FB033201FB0021184622A3AD
:10A90000D3E90023FDF7A2F82C690444002C2C6144
:10A9100009DB40F2E24303FB09F3A3422ED2E41A1F
:10A92000A342FCD32C61D8F800301A48DB1BA3FBF0
:10A930000002072101FB032113A3D3E90023FDF744
:10A9400085F8154BA3FB0636A0EB96402044286102
:10A9500003B0BDE8F08338461BF0B0FA0D4B072179
:10A96000A0FB033201FB0021184607A3D3E9002313
:10A97000FDF76CF82C69241AC8E72C69002CD2D199
:10A9800003B0BDE8F08300BF00CA9A3B000000009E
:10A99000BFBDF07F8D49FD1A83DE1B430000000020
:10A9A00010B5334C3349002304F1FF3C14F8332035
:10A9B000072A02EB820E05D811F83E2022F0200271
:10A9C00001F83E201CF8332022F001020CF833205D
:10A9D0000133082BEAD1284A284C002313700A7847
:10A9E00063F300020A7091F8282063F3000281F8F3
:10A9F000282091F8502063F3000281F8502091F84C
:10AA0000782063F3000281F8782091F8A02063F3A6
:10AA1000000281F8A02091F8C82063F3000281F8B9
:10AA2000C82091F8F02063F3000281F8F02091F83B
:10AA3000182163F3000281F81821114A9FED0A7B67
:10AA40001370104B83ED007B0F4B236028B1BDE8E2
:10AA500010400E490E483CF050BEBDE810400C4876
:10AA60003CF058BEAFF30080FFFFFFFFFFFFFFFF8A
:10AA7000518A00200856002032A60020608900205C
:10AA800031A6002000560020A0BB0D00650D05007A
:10AA9000D0550020000000002DE9F0478EB00DF1E8
:10AAA0003701354F354E82460DF136001CF086F9E0
:10AAB0009DF836309DF837200A930B921BF0FCF975
:10AAC0003D68A5FB06452AA3D3E900238146294614
:10AAD0002046FCF7BBFFCDF818A020F07F4878682F
:10AAE000274B0593A0FB060121A3D3E900230026F1
:10AAF000CDE90766FCF7AAFF224B20F07F40A8FBB8
:10AB000003310722CDE9036002FB0811E01A65EB6F
:10AB100001014FF47A720023FCF798FF0096CDE90B
:10AB200001804B46DDE90A0203211BF029F810F0F1
:10AB3000FD0404D06FF08B000EB0BDE8F087124822
:10AB4000124A002332F09AFC18B9F8680EB0BDE83A
:10AB5000F0879DF837209DF83600009423460321A6
:10AB60001BF0C2F86FF07300E6E700BFAFF30080A0
:10AB70008D49FD1A07000000DC8A002000CA9A3BBC
:10AB8000551505008D49FD1AC48A0020447B0B0031
:10AB900038B50F4D04461BF08FF9A9681BF08EF9EC
:10ABA000696803460B48B3FBF4F4A1FB00011C44A5
:10ABB00005A3D3E90023FCF749FF20F07F4084423E
:10ABC00094BF0020012038BD8D49FD1A0700000008
:10ABD000DC8A002000CA9A3BF0B5C468636883B081
:10ABE0000646002B63D129F059FA002029F07EFA9D
:10ABF0000021084629F06CFA00222521082029F0BE
:10AC0000A9FA474B019301A829F090FA454940F26F
:10AC10005B6029F043FB237AC3F3420262F306131D
:10AC20002372204627F0ACFD26F014FC637A03F073
:10AC3000030348BBFBB927683568384627F0D4F8CA
:10AC4000054405F109017268012029F087FC29F00B
:10AC500077FD20461EF078F8811C2A46C9B2384696
:10AC600027F0D0F8054668BB204627F055F878B99C
:10AC7000002003B0F0BD012025F014FF4178821CB4
:10AC8000007829F00BFCD6E7181E18BF0120F3E767
:10AC9000254A2649264840F2294335F098FE85F397
:10ACA0001188BFF36F8F0323184602DFE0E793F8A4
:10ACB0002C309B0797D01F48214629F0ABF929F08B
:10ACC0009BFAD5E7184A1C49194840F2114335F060
:10ACD0007EFE1A4B0721A5FB030301FB05310EA3E2
:10ACE000D3E90023FCF7B2FE15490246154835F0BA
:10ACF0006EFE002585F31188BFF36F8F032318467E
:10AD000002DF1148214629F085F929F075FA6FF024
:10AD10008B00AEE7AFF3008000CA9A3B0000000052
:10AD2000D6BE898E5555550058C3060094B306000B
:10AD3000B8B106009D1F050094B206008D49FD1AAA
:10AD4000CCC70600DCC30600352305000000000068
:10AD50002DE9F041C46894F91630002B8EB0C0F292
:10AD60000581636806460F46002B40F0F480A37D02
:10AD700023F00103A37529F091F9002029F0B6F919
:10AD80000021084629F0A4F900222521082029F0F5
:10AD9000E1F901201CF01CF90546002800F0CC80E8
:10ADA00005F11C0029F000FA8B4B0D930DA829F03A
:10ADB000BDF98A4940F25B6029F070FAA07DC0F3CA
:10ADC0004100253027F032F88548214629F022F944
:10ADD000A37D9B0603D46368002B00F0AA80962015
:10ADE00029F0B0FB00231A461946184629F0BEFA8E
:10ADF00026F030FB002838D1A37D13F0180F5BD16B
:10AE000023680B931846356826F0EEFF05447268F8
:10AE100005F10901002029F0A1FB29F091FC29F09E
:10AE200019FB20461EF0EEF9011DC9B20B982A4607
:10AE300026F0E8FF8046002840F09F8017B9636A3B
:10AE4000002B52D1636843B1664B012202210020DE
:10AE50009E6019F0F9FA002837D1204626F05CFFF1
:10AE6000D0B900200EB0BDE8F081A07DC0F3C000D5
:10AE700025F018FE05460DF1330026F04DF96978EE
:10AE80008046AA1C287829F009FB9DF8330000228F
:10AE9000414629F025FDB3E7534A5449544840F24E
:10AEA0000B2335F094FD002383F31188BFF36F8FDC
:10AEB0000323184602DFD4E7012025F0F3FD417893
:10AEC000821C007829F0EAFA9AE7474A494948483B
:10AED00040F2062335F07BFD002383F31188BFF396
:10AEE0006F8F0323184602DFB7E7434A0792434AAE
:10AEF000059240F2F31200930892CDE90377CDE971
:10AF0000017706942B46032239461AF039FE10F0D9
:10AF1000FD0F97D0344A3A4935484FF4FA7335F06B
:10AF200056FD87F31188BFF36F8F0323184602DFA6
:10AF300088E729F07FFA5BE72B4A32492C484FF427
:10AF4000C57335F044FD85F31188BFF36F8F03237C
:10AF5000184602DF24E7636893F82C30D90705D43C
:10AF6000636893F82C309A077FF501AF2648214695
:10AF700029F050F829F040F973E71B4A23491C488F
:10AF800040F2E51335F023FD214B0721A8FB030315
:10AF900001FB08310EA3D3E90023FCF757FD1D493F
:10AFA00002461D4835F013FD002585F31188BFF3D7
:10AFB0006F8F0323184602DF1848214629F02AF82C
:10AFC00029F01AF96FF08B004CE700BFAFF3008057
:10AFD00000CA9A3B00000000D6BE898E5555550028
:10AFE000C1B002009016002008C4060094B3060009
:10AFF000B8B10600A8B20600112F0500BD2F05004C
:10B000000CB70600A4C306009D1F050094B20600FD
:10B010008D49FD1AD8C70600DCC30600E52D0500E2
:10B0200038B5044627F08CFEA37DA27DC3F341030F
:10B03000013303F00303032B08BF002363F3420231
:10B0400014BF03F125002520A27526F0EFFE6368EA
:10B050000BB123694BB91AF02FFFC11C002029F056
:10B06000F5FABDE8384029F06BBB29F01BFB05461B
:10B070001AF022FFC11C002029F0E8FA29F060FB39
:10B0800029F010FB29461AF019FF0B4B0721A0FBF2
:10B09000033201FB0021184605A3D3E90023FCF786
:10B0A000D5FC23691B1A236138BD00BFAFF30080B4
:10B0B00000CA9A3B000000008D49FD1A0000000004
:10B0C0002DE9F0478AB0044629F0D2F8C0B2002832
:10B0D00000F00D8129F0EEF8054629F013FA074635
:10B0E00029F01AFA814629F057FC064629F036FC69
:10B0F000824629F0C9F9804629F0AAF926F0F0FE27
:10B10000EBB243B98E48214628F084FF0AB0BDE86F
:10B11000F04729F071B801201BF05AFFFDB2F7B2D9
:10B120000646002800F0EC80002D40F0FA80002F49
:10B1300040F0E0804FF0FF092A464B463946204652
:10B1400028F042F80028DDD0327F616800238DF8B6
:10B1500023305FFA88F802F00F03002900F0158110
:10B16000616891F82C10890700F10F81072BC9D075
:10B17000A17D0D0740F14881002B40F0ED80737FE9
:10B18000063B1F2BBED804201BF022FF0028B9D09D
:10B1900029F0DEFA636A054643B9238C40F2712236
:10B1A00002FB03F3B0FBF3F203FB120523681A69F9
:10B1B000644B0721A2FB030301FB02315EA3D3E929
:10B1C0000023FCF743FC6FF4427143181F3B62EB12
:10B1D0000202AB4272F1000294D329F02BF94846E7
:10B1E000636825F085FFE37D9A07824640F18281FE
:10B1F0000246002800F07E810123CDE9063229F0C5
:10B2000067F8069B029309AB079A049306F11E03A5
:10B2100003920193337FC3F38013014605460093E5
:10B2200000220123204627F0E9FF284628F0C2FF2C
:10B2300029F00AF8002840F0C8812146424828F049
:10B24000E9FE626892F82C3043F0010382F82C305A
:10B25000A37D43F08003A3751BF0D4FE1722027177
:10B260004FF6FF72C280327F0146C2F340182B4670
:10B2700000F11C0205F120001D68D3F804C0D3F8CA
:10B2800008E0DE68D660103383421560C2F804C05F
:10B29000C2F808E002F11002EED11B6813600B7FC8
:10B2A0008C6068F345130B77069129F0FBF906993A
:10B2B0000861099B4B61002F14BF4B46FF234B765F
:10B2C000E37D8A7EC3F34003BAF1000F0CBF002375
:10B2D00003F0010363F300028A761BF093FE0699E4
:10B2E000C86008680AB0BDE8F0471BF0B7BE26F09A
:10B2F000F7FD07E75FFA8AF025F08CFF81461BE730
:10B30000124A1349134840F2C72335F060FB86F315
:10B310001188BFF36F8F0323184602DF002D3FF41F
:10B3200006AFA07D5FFA89F1C0F3C00025F0FEFEF4
:10B33000814601E7AFF3008000CA9A3B000000009D
:10B34000012E05008D49FD1A0530050008C40600D0
:10B35000A4C30600B8B10600012B40F08480727FC0
:10B360000C2A7FF4CFAE327FCDF80090194600232F
:10B370000193D20906F12403204627F069FE002834
:10B380007FF401AF337F03F00F03002B4CD1737FA9
:10B390009A1F1F2A3FF6B6AEA27D02F02102202A94
:10B3A00007D16268002A00F0AB80063B1F2B3FF6F6
:10B3B000A9AE63682BB1337F03F00F03072B7FF433
:10B3C000A1AE03209DF823501BF002FE00283FF49D
:10B3D00099AE06901BF016FE06994FF6FF73CB80D0
:10B3E00005230B71B8F1000F1AD17F208B7E0876F0
:10B3F000002F14BF4A46FF2265F3410308684A76CE
:10B400008B761BF02BFE7DE6B9F1FF0F8DF82490B3
:10B41000C2F3801551D0227E91453FF4ADAEB4E722
:10B4200029F022F80699E1E7062BB0D04521D94052
:10B4300011F0010140F0FF80012B1BD1737F0C2B19
:10B440007FF460AE327FCDF800900DF123030193BD
:10B45000D20906F12403204627F0FAFD50B1737F8C
:10B46000002BA6D14EE6062B91D04522DA40D0071C
:10B4700000F1E180337F03F00F03042B7FF442AE31
:10B48000737F063B1F2B3FF63DAEA37DDB077FF5A9
:10B4900039AE28F01DFF337F0278C3F38013B3EB7E
:10B4A000D21F7FF42FAE0830062206F11E013CF0B9
:10B4B00057FD00287FF426AED1E706F11E0109AA48
:10B4C0002846069125F068FF069900283FF45AAFF8
:10B4D000E37D03F00103AB427FF454AF062204F195
:10B4E00008003CF03DFD00287FF44CAF337F03F0B3
:10B4F0000F0341E6A37D04F11902C3F380137CE638
:10B500009620069229F01EF8069828F0E5FE032002
:10B510001BF05EFD00283FF4F5AD06901BF072FDB8
:10B5200006994FF6FF73CB8005230B71B8F1000F1E
:10B530006CD17F23002F0B7614BF4B46FF234B7635
:10B540008B7E086823F002038B761BF087FD28F0C2
:10B55000BFFE02780346032161F303021A70327FB3
:10B5600019780693C2F3801262F3C7110C225A7045
:10B570001970484625F0BCFDE27D069B12F0020FD3
:10B5800033D090B319781A4641F0400102F8021BFB
:10B590000168C3F8021081889180D6F81E209A6055
:10B5A000728C9A81184628F005FE28F04DFE90BB5B
:10B5B00029F0C6F8A37D214843F001032146A37575
:10B5C0000AB0BDE8F04728F025BD1D4A1D491E48B8
:10B5D00040F2AF4335F0FBF9002383F31188BFF34A
:10B5E0006F8F0323184602DF27E6A27D1978C2F386
:10B5F000801262F386111A4602F8021BD4F8191061
:10B60000C3F80210B4F81D109180C6E728F02CFF93
:10B61000069903468EE70A4A0A490B4840F233531B
:10B6200035F0D5F9002383F31188BFF36F8F03231F
:10B63000184602DFBCE7737FB7E600BF152E050092
:10B6400008C40600ACC30600B8B106000000000044
:10B65000F0B5C468A28A4FF6FF739A4283B000F037
:10B66000D780074627F0DEFE3B89628B208C94F85A
:10B670002710A3831A4492B2104480B2431C23843F
:10B680000023638301F03F034906E28300F19B80BE
:10B6900094F82810009304F1290004F1220324F007
:10B6A000FDFC0546D4E90C31A28B02FB0333A26BEF
:10B6B0001344E26B8B4294BFD21852188A4228BFBF
:10B6C0000A46636CE263226C94F86710134494F8A2
:10B6D0002C20636461F3061284F82C2094F87E20F9
:10B6E000002312F00402A363236475D028F0D6FC73
:10B6F000002028F0FBFC201D28F018FD2389A17AEA
:10B7000040F25B6043EA014128F0C8FD284626F07C
:10B710008DFB2146584828F07DFCA08928F012FFB7
:10B7200094F8662094F86700C2F3C003002102F089
:10B73000070200F0070028F019FE204627F032FF2C
:10B7400026683D68304626F04FFB05447A6805F1CF
:10B750000901002028F002FF074628F0C5FF00205D
:10B7600028F0DCFFE36B94F8670003F12F02636CB1
:10B7700000F0070003EB420301211F4428F028FDDD
:10B780003B1894F8670000F00700022822D0042834
:10B790000CBF4FF4BC72282201219F1828F01AFD1B
:10B7A000384428F093FFA18A05312A46C9B23046B1
:10B7B00026F028FB054690BB204626F0ADFAC0B91E
:10B7C000002003B0F0BD218D04F1220224F0B0FC72
:10B7D000054667E71822DFE7D4E91A0118F0C0FD33
:10B7E000002883D194F87E3043F0040384F87E303F
:10B7F0007CE7224A224923484FF4B07335F0E7F83A
:10B8000085F31188BFF36F8F0323184602DFD7E754
:10B810001D48214628F0FEFB28F0EEFCD0E7174A31
:10B820001A4918484FF4AB7335F0D1F8184B07217B
:10B83000A5FB030301FB05310DA3D3E90023FCF7AE
:10B8400005F914490246144835F0C1F8002585F37E
:10B850001188BFF36F8F0323184602DF0F4821467C
:10B8600028F0D8FB28F0C8FC6FF08B00A9E700BFD8
:10B8700000CA9A3B000000002D380500D4C4060021
:10B8800094B30600B8B106009D1F050094B20600EF
:10B890008D49FD1AECC70600DCC30600751F0500C4
:10B8A00070B5C468A28A4FF6FF739A4286B000F062
:10B8B0008F80054627F0B6FD2B89628B208C94F88B
:10B8C0002710A3831A4492B2104480B2431C2384ED
:10B8D0000023638301F03F034906E28362D494F8B6
:10B8E0002810009304F1290004F1220324F0D6FB70
:10B8F0000646204605A927F035FF059B94F87E10E3
:10B900001A7861F3C3021A70059A94F87E301178A0
:10B91000C3F3400363F38201117028F0BFFB0020E2
:10B9200028F0E4FB201D28F001FC2389A17A40F2D5
:10B930005B6043EA014128F0B1FC304626F076FA1C
:10B940000599204627F0DCFE21463B4828F062FBA3
:10B95000E08928F0F7FD94F8670000F0070028F070
:10B96000BBFC26682B680393304626F03DFA039B08
:10B970006A68034403F109010120039328F0EEFDF6
:10B9800028F0DEFEA18A039A0531C9B2304626F0BE
:10B9900039FA054618BB204626F0BEF948B9002002
:10B9A00006B070BD218D04F1220224F0C1FB0646D1
:10B9B0009FE7224A224923484FF4827335F007F863
:10B9C00085F31188BFF36F8F0323184602DFE6E784
:10B9D0001D48214628F01EFB28F00EFCDFE7174A21
:10B9E0001A491848FA2334F0F2FF194B0721A5FB36
:10B9F000030301FB05310EA3D3E90023FCF726F86E
:10BA000014490246144834F0E2FF002585F31188FA
:10BA1000BFF36F8F0323184602DF1048214628F03A
:10BA2000F9FA28F0E9FB6FF08B00B9E7AFF300807B
:10BA300000CA9A3B000000003536050028C5060004
:10BA400094B30600B8B106009D1F050094B206002D
:10BA50008D49FD1AF8C70600DCC30600751F0500F6
:10BA60002DE9F04F10EE101A2DED028B10EE904ADA
:10BA7000A1F500026300B2F1FE4F87B0F0EE407A0C
:10BA8000B0EE608A03F1FF306FF0807280F08F803B
:10BA9000904280F09480002401F14048B24D08F5B6
:10BAA0004D08C8F3C3496FF3160805EB0919A1EB5C
:10BAB0000800FBF789FCD9E90023FBF7DDFCAB4B61
:10BAC0000022FBF721FB02460B4606460F46FBF71A
:10BAD000D3FC82464FEAE8508B46FBF763FCD9E97A
:10BAE0000223FBF713FBD5E94823804689463046FD
:10BAF0003946FBF7C1FC02460B4640464946FBF778
:10BB000005FBD5E94023CDE9000130463946FBF776
:10BB1000B3FCD5E94223FBF7F9FA52468046894641
:10BB20005B4650465946FBF7A7FC02460B4640468B
:10BB30004946FBF7A1FCD5E94423804689463046B7
:10BB40003946FBF799FCD5E94623FBF7DFFA524665
:10BB50005B46FBF791FCDDE90023FBF7D7FA424691
:10BB60004B46FBF7D3FA064618EE100A0F46FBF7D2
:10BB70002BFC02460B4630463946FBF77DFC48F26B
:10BB8000BF03C1F3CF329A4206460F46C0F09280FF
:10BB900073A3D3E90023FBF7FFFE00287BD02046E8
:10BBA00007B0BDEC028BBDE8F04F33F071BE9042A0
:10BBB00033D32BB14900B1F17F4F08D818E06BB9EE
:10BBC00081F48001490011F5000F40F2C38037EE87
:10BBD000880A07B0BDEC028BBDE8F08FB1F17E5F43
:10BBE00005D184F48004640014F5000FEDE74900EA
:10BBF000B3F17F4FEBD1B1F1FE4F00F0AB80B1F16B
:10BC0000FE4F6FEA040434BF00210121E40FA1427A
:10BC100040F0A38028EE080ADBE74B00013B93428B
:10BC200015D3002960EE007A06DA20463CF0B2FB1C
:10BC3000012808BFF1EE677A002CADBFCDED057A83
:10BC4000B7EE007A87EE270A9DED050AC1E70029C5
:10BC50001FDA20463CF09EFB30B907B0BDEC028BEA
:10BC6000BDE8F04F33F024BE431E5842584104044F
:10BC700021F00041B1F5000FBFF40EAF9FED3C7A0B
:10BC800067EE877A17EE903A23F00043A3F138610C
:10BC900002E70024EEE7374B002230463946FBF737
:10BCA00067FE38B1204607B0BDEC028BBDE8F04F0F
:10BCB00033F0DEBD304DD5E94089304642464B4633
:10BCC0003946FBF723FA42464B468246FBF71CFAFD
:10BCD00002460B4630463946FBF716FA0AF01F03B8
:10BCE00005EBC30255F833605768D5E94623804613
:10BCF0008946FBF7C1FB1D4B0022FBF707FAD5E98C
:10BD00004223CDE9000140464946FBF7B5FBD5E9A2
:10BD10004423FBF7FBF94246CDE902014B4640467E
:10BD20004946FBF7A9FB02460B46DDE90201FBF79A
:10BD3000A3FBDDE90023FBF7E9F9002514EB0A0476
:10BD400007EBC433AA19FBF797FBFBF72FFE00EEB6
:10BD5000100A3EE7B7EE000A3BE79FED080A38E716
:10BD600071D5D1FFFFFF5F40109706000000F03F44
:10BD70000000004B00C062C0C89506000000000033
:10BD8000F0B403460A461979DB88006813430B4A6E
:10BD9000876806699A4304D113F4402F18BF83F4CF
:10BDA0004023346801258D4023F48012DB074CBF0B
:10BDB0002C43AC4334603B68F0BC184701001000D2
:10BDC000F8B5406800AF08301646FFF7D9FF0446C3
:10BDD000A0B16D468AB00B4B0790CDE905366A4697
:10BDE0004FF40073ADF82030074B42F8103F07487E
:10BDF00000234FF411510AF019FBAD462046BD4611
:10BE0000F8BD00BF64D70600040000016C90060076
:10BE1000024A4FF48031FFF7D3BF00BF30DC060089
:10BE2000024A4FF42021FFF7CBBF00BF5750070055
:10BE3000F8B5406800AF10301646FFF7A1FF044682
:10BE4000A0B16D468AB00B4B0790CDE905366A4626
:10BE50004FF40073ADF82030074B42F8103F07480D
:10BE600000234FF411510AF0E1FAAD462046BD46D9
:10BE7000F8BD00BF94D70600040000016C900600D6
:10BE8000024A4FF48031FFF7D3BF00BF30DC060019
:10BE9000024A4FF42021FFF7CBBF00BF57500700E5
:10BEA00010B542680B469068117BA3B183689C690A
:10BEB00044B14FF000734FF0A072A047044618B988
:10BEC000204610BD6FF057040A4A23460A48012154
:10BED00033F0E0FEF4E78268946944B14FF4001255
:10BEE000A04704460028EBD0044A2346EEE76FF053
:10BEF0005704F9E7C4D706006C900600F8D706008F
:10BF000070B5466805460121B06933F0C7FE041ECE
:10BF100007DA0C4A0C482346012133F0BBFE2046C9
:10BF200070BD706883685B6C03B198470021284638
:10BF3000FFF7B6FF2846FFF773FF2846FFF7A8FF75
:10BF4000EDE700BF2DD806006C90060070B545687F
:10BF500006460021A86933F0A1FE041E07DA084A4C
:10BF600008482346012133F095FE204670BD00218C
:10BF70003046FFF795FF686833F07DFEF5E700BFB8
:10BF800057D806006C90060013B500690C462C309B
:10BF900001A931F0E1F838B10548064A022133F031
:10BFA0007BFE8C2002B010BD9DF804302370F9E7B1
:10BFB0006C90060085D80600F7B507698DF8041067
:10BFC00006460D4602240022002301A907F12C0099
:10BFD00031F066F898B10C4A0C48022133F05CFE4F
:10BFE000002200230DF107013046FFF7CDFF012CA1
:10BFF00007D1074A05482B46214633F04BFE03B0D4
:10C00000F0BD0124DFE700BF9DD806006C9006005C
:10C01000C4D8060010B5047A8C4208D80F4A0B46E3
:10C020000F48012133F036FE4FF0FF3010BD40685D
:10C0300000EBC1042479944202D81346094AEFE781
:10C0400050F8311051F82220C2F341111960029BBF
:10C0500002F01F021A600020E8E700BFEFD80600D8
:10C060006C90060037D906002DE9F04786B00469C8
:10C07000D0F80480206002AF4FF0FF330026C7E9FC
:10C0800000333B1D84F82060666284F82860A4F8C1
:10C09000C060C4F8C460A4F8C860009331463B4651
:10C0A00005460122D8F81800FFF7B4FFE946D7E9A2
:10C0B0000023D8F81CE098F80CC0D8F8200098F8B5
:10C0C00014108CB0DFF8CCA10D93CDE90B1202AAAD
:10C0D0000823CDE907AECDE909C042F8103F5B481F
:10C0E000334644F2C0010AF0A1F96423CD4601228F
:10C0F00004F15C0104F12C003BF0F5F8D8F8006085
:10C100007EB95349534800960A234FF4806231F0B8
:10C1100085FB51495148009602234FF4806231F06B
:10C120007DFB04F110004E493BF08CFA4D4904F5BB
:10C1300080703BF0E2FA0122002104F1E4003BF0C0
:10C1400008FA0122002104F1CC003BF002FA6C68ED
:10C150002E6960683AF0D1FF88B9434A3B48012113
:10C1600033F09AFD6FF01204404A2346374801210C
:10C1700033F090FD20461037BD46BDE8F0873C4ABD
:10C180003248032133F088FD606883689B6A0BB9ED
:10C19000384AE3E707F1080198470028F8D1364B01
:10C1A000FB60606883685B6A63B107F108019847C8
:10C1B000034650B1314A2548012133F06BFD6FF041
:10C1C0001504D1E76FF05703F4E76068836823B183
:10C1D0001B6E13B132682A499847606833F04BFDF3
:10C1E000606883681B6D03B1984768682969037BA1
:10C1F000D1F84041012202FA03F3C1E90243806809
:10C200008368DB69B3B104319847044628B11D4AFD
:10C210000E482346012133F03DFD0C481A4A032104
:10C2200033F03AFD00212846FFF73AFE2CB1174AB9
:10C2300023469BE76FF05704E9E72846FFF786FEA1
:10C240000446002896D0124A03468FE76C900600F9
:10C2500000AB0020E820002080A600200020002065
:10C2600081FC0500C5C60200DBD906004CDA0600D9
:10C27000F1D9060006DA06000201030028DA0600FA
:10C28000C1C3020064DA0600A1DA0600B7DA0600CC
:10C29000CFDA06007DD9060001380F289ABF024B7D
:10C2A00053F820000148704738980600FADA060073
:10C2B0002DE9F04143680469064600AF58680D4611
:10C2C00083681B6A002B3DD102221046FFF7E4FF72
:10C2D000E8468AB0264BCDE90702CDE905356A4626
:10C2E00040F20133ADF82430224B42F8103F22488F
:10C2F00000234FF432510AF099F8C54694F8C8303B
:10C300008BB1002384F8C95084F8C83004F1CC0004
:10C3100031F07AF8AB1DDBB2042B04D8152222FAD7
:10C3200003F3DB070BD4636AC3B194F82830ABB1D5
:10C33000124884F8205004F110013BF0ADF9BD46DD
:10C34000BDE8F08198478307BED510F00102BCD14B
:10C35000410708D40207D1D50822B6E7294630465E
:10C36000FFF72AFEEBE7FA2DC8D00422ADE700BFA5
:10C3700008DB0600050000016C900600002000208C
:10C3800013B583681B6B0C4663B101220DF10701E5
:10C390009847031E09DC084A0848012133F07AFC5B
:10C3A00002B010BD6FF05703F5E79DF80710204667
:10C3B000FFF77EFFF4E700BF36DB06006C90060057
:10C3C00070B504460D468368DB6D53B1984701286C
:10C3D00003460DD0BDE870400A4A0B48012133F0F6
:10C3E00059BC6FF05703F5E729462046FFF7C8FF11
:10C3F000A368DB6C002BF7D0204698470028F3D1C8
:10C4000070BD00BF56DB06006C900600F8B505460F
:10C4100006690F460022002306F1E40031F02EF8F1
:10C42000044650B110F1100F07D0214A03462148AD
:10C43000012133F02FFC2046F8BD2846FFF760FDB0
:10C44000044610B11C4A0346F1E7C6F8C400014691
:10C4500086F8C170284633F045FC0121284633F0A8
:10C4600047FC4FF4FA703AF043FE2146284633F079
:10C470003FFC4FF4FA703AF03BFED6F8C43001337B
:10C48000C6F8C4300121284633F02CFC2846FFF7BB
:10C49000BFFC01212846FFF703FD6322002306F5B8
:10C4A0008071064831F0F8F9054830F02DFFC2E7F9
:10C4B00067DC06006C900600A8DB0600E820002080
:10C4C000401B002037B50D460469FFF79FFF38B1C8
:10C4D0001448154A012133F0DFFB012003B030BDC1
:10C4E0009E22002304F1E40030F0C8FF40B10F4A5F
:10C4F00000902B460B48012135F052FA0220EDE75F
:10C5000094F8C030022B09D006480093084A2B4605
:10C51000012135F045FA94F8C0004042002384F828
:10C52000C030DBE76C9006009EDC0600C2DC060033
:10C5300003DD060073B50E460469FFF7C3FFB0B90B
:10C54000012384F8C830002342F2676204F1CC0072
:10C5500030F094FF002394F8C950A4F8C83040B1DB
:10C560000C480D4A3346022133F094FB032002B0FD
:10C5700070BD05F0FD03FC2BF9D10648074A009574
:10C580003346022135F00CFAFE2D14BF052004209D
:10C59000EDE700BF6C90060041DD060091DD06006E
:10C5A0002DE9F04383B0814602AF0E461C484FF0A0
:10C5B000FF324FF0FF3330F031FE00244FF005081A
:10C5C00031464846FFF7B6FF0546D8B994B1E8466C
:10C5D0008AB0144B02AACDE9073601340523099429
:10C5E0000A9342F8103F4FF4225103460E4809F0D7
:10C5F0001DFFC5460A4830F087FE28460437BD4671
:10C60000BDE8F0830528F5D0042CF3D0074A06488E
:10C61000CDF80080A31C022135F0C2F90134CFE728
:10C62000401B0020BDDD06006C900600E9DD060021
:10C630002DE9F843046900AF05460E4604F5807005
:10C6400091463BF067F83EBBE84694F8C1308AB0AB
:10C65000174ACDF81C90CDE9052340F201336A4614
:10C66000ADF82030134B42F8103F134833464FF4D7
:10C67000115109F0DBFE0323C54684F8C03028467B
:10C68000FFF764FC034648B10C4A0B48012133F024
:10C6900001FBBD46BDE8F8830223EEE784F8C10044
:10C6A00004F1E40030F0B0FE054830F02DFEF0E774
:10C6B0000EDE0600040000016C9006002DDE060070
:10C6C000401B0020A0F58070024A00680021FFF79F
:10C6D000AFBF00BF5ADE060070B5234A04460321EF
:10C6E000224833F0D9FA04F580703BF013F8206843
:10C6F0000021FFF7D5FB0025072D18D894F8C110AD
:10C700002068294101F0010133F0F2FA452001359A
:10C710003AF0EEFC0A2DEFD1206833F0DEFAC8B90A
:10C72000134A20680121BDE87040FFF781BF082D42
:10C73000266807D194F8C10033F0EAF880F00101CF
:10C740003046E1E73046012133F0D2FA2068FFF7A6
:10C7500097FBDBE7074A94F8C1300448022133F025
:10C7600099FA054ADDE700BF66DE06006C90060018
:10C770009BDE0600AADE0600D0DE060013460A464F
:10C7800001460148FFF7A8BF800A002038B50446DB
:10C7900000F580703AF0BEFFD4F8C43013B35A1ECF
:10C7A0000A2A42D8DFE802F0060606060606060652
:10C7B0001F262E0094F8C110114101F001012068DC
:10C7C00033F096FAD4F8C4300A2B06DC1A48052256
:10C7D000002304F5807131F05FF8D4F8C4300133E0
:10C7E000C4F8C43038BD94F8C10033F091F880F03B
:10C7F0000101E4E72068012133F07AFA2068FFF7AD
:10C800003FFBDFE7206833F068FA28B90B4A20685D
:10C810000121FFF70DFFD5E7094A94F8C130094817
:10C82000022133F037FA084AF1E7084A05480121A6
:10C8300033F030FAC6E700BFE82000209BDE060098
:10C84000AADE06006C900600D0DE0600DBDE0600E5
:10C8500013460A4601460148FFF798BF800A0020A8
:10C860002DE9F04788B06C4608AFD0F81080064636
:10C8700088B022461C4BDFF880A00D934FF00309CF
:10C88000CDF838A0194842F8109F4FF4C8514546DA
:10C8900033F070FAA54688B045F8806B144B134806
:10C8A0002246CDE90D3A4FF4C85142F8109F33F0BB
:10C8B00061FAA5464FF400420023CDE90623002487
:10C8C0006FF00503CDE90334CDE90144094B00962F
:10C8D0004FF40062294608F5106031F0B9F820469F
:10C8E000BD46BDE8F08700BF55DF0600C4900600D6
:10C8F00073DF060049DC02006F5507002DE9F041A7
:10C90000436806691D6800AFE846044688B00F4BCF
:10C910000F486A46CDE905314FF40073ADF81C307D
:10C920000C4B42F8103F4FF4E25133F023FA00234E
:10C93000C546FE21C6F8D039284633F010FA204605
:10C9400033F01BFABD46BDE8F08100BF97DF06005B
:10C95000C490060003000001B0B5A0F51E6000AF52
:10C960006D460468D0F8D03988B00A4A05920A4A60
:10C970000A48CDE906236A46042342F8103F4FF4E3
:10C98000045133F0F7F92046AD4633F0F6F9BD46D1
:10C99000B0BD00BFD7DF060041560700C4900600B7
:10C9A0002DE9F04F89B0056906909846436895F8DF
:10C9B000406A079317468946002939D0002E40D196
:10C9C000784A7948032133F0D3F934464FF0010A0D
:10C9D00095F8413A0593002F38D0002B40D1734A87
:10C9E0007148032133F0C4F90AF1010A95F842BAFB
:10C9F000B8F1000F37D0BBF1000F3ED16C4A6A4846
:10CA0000032133F0B5F90AF1010ABAF1010F01DC93
:10CA1000012C36DD674A644800945346022134F005
:10CA2000BFFF6549069809B0BDE8F04FFFF766BF44
:10CA30004EB1624A5C48032133F09AF90124CA4698
:10CA4000C6E70026B1463446B246C1E7059B002B37
:10CA5000CCD05B4A5448032133F08AF90134C5E74E
:10CA600000270597C2E7BBF1000FCED0554A4E48CC
:10CA7000032133F07DF90134C7E74FF00008C346C6
:10CA8000C3E7079B5A7D002A47D1BAF1010F01D0B5
:10CA9000012C42D15444B9F1000F41D04FF0FF3284
:10CAA0004FF0FF33661E2868CDE9022373427341BD
:10CAB0000093012319464FF4807228F095F9012361
:10CAC00085F8403AB8F1000F40D04FF0FF324FF0F8
:10CAD000FF332868CDE90223A21E544254410123AA
